{
  "_format": "hh-sol-artifact-1",
  "contractName": "MechPet",
  "sourceName": "contracts/token/MechPet.sol",
  "abi": [
    {
      "inputs": [
        {
          "internalType": "address",
          "name": "xTokenAddress",
          "type": "address"
        }
      ],
      "stateMutability": "nonpayable",
      "type": "constructor"
    },
    {
      "inputs": [
        {
          "internalType": "address",
          "name": "sender",
          "type": "address"
        },
        {
          "internalType": "uint256",
          "name": "tokenId",
          "type": "uint256"
        },
        {
          "internalType": "address",
          "name": "owner",
          "type": "address"
        }
      ],
      "name": "ERC721IncorrectOwner",
      "type": "error"
    },
    {
      "inputs": [
        {
          "internalType": "address",
          "name": "operator",
          "type": "address"
        },
        {
          "internalType": "uint256",
          "name": "tokenId",
          "type": "uint256"
        }
      ],
      "name": "ERC721InsufficientApproval",
      "type": "error"
    },
    {
      "inputs": [
        {
          "internalType": "address",
          "name": "approver",
          "type": "address"
        }
      ],
      "name": "ERC721InvalidApprover",
      "type": "error"
    },
    {
      "inputs": [
        {
          "internalType": "address",
          "name": "operator",
          "type": "address"
        }
      ],
      "name": "ERC721InvalidOperator",
      "type": "error"
    },
    {
      "inputs": [
        {
          "internalType": "address",
          "name": "owner",
          "type": "address"
        }
      ],
      "name": "ERC721InvalidOwner",
      "type": "error"
    },
    {
      "inputs": [
        {
          "internalType": "address",
          "name": "receiver",
          "type": "address"
        }
      ],
      "name": "ERC721InvalidReceiver",
      "type": "error"
    },
    {
      "inputs": [
        {
          "internalType": "address",
          "name": "sender",
          "type": "address"
        }
      ],
      "name": "ERC721InvalidSender",
      "type": "error"
    },
    {
      "inputs": [
        {
          "internalType": "uint256",
          "name": "tokenId",
          "type": "uint256"
        }
      ],
      "name": "ERC721NonexistentToken",
      "type": "error"
    },
    {
      "inputs": [
        {
          "internalType": "address",
          "name": "owner",
          "type": "address"
        }
      ],
      "name": "OwnableInvalidOwner",
      "type": "error"
    },
    {
      "inputs": [
        {
          "internalType": "address",
          "name": "account",
          "type": "address"
        }
      ],
      "name": "OwnableUnauthorizedAccount",
      "type": "error"
    },
    {
      "anonymous": false,
      "inputs": [
        {
          "indexed": true,
          "internalType": "address",
          "name": "owner",
          "type": "address"
        },
        {
          "indexed": true,
          "internalType": "address",
          "name": "approved",
          "type": "address"
        },
        {
          "indexed": true,
          "internalType": "uint256",
          "name": "tokenId",
          "type": "uint256"
        }
      ],
      "name": "Approval",
      "type": "event"
    },
    {
      "anonymous": false,
      "inputs": [
        {
          "indexed": true,
          "internalType": "address",
          "name": "owner",
          "type": "address"
        },
        {
          "indexed": true,
          "internalType": "address",
          "name": "operator",
          "type": "address"
        },
        {
          "indexed": false,
          "internalType": "bool",
          "name": "approved",
          "type": "bool"
        }
      ],
      "name": "ApprovalForAll",
      "type": "event"
    },
    {
      "anonymous": false,
      "inputs": [
        {
          "indexed": false,
          "internalType": "uint256",
          "name": "_fromTokenId",
          "type": "uint256"
        },
        {
          "indexed": false,
          "internalType": "uint256",
          "name": "_toTokenId",
          "type": "uint256"
        }
      ],
      "name": "BatchMetadataUpdate",
      "type": "event"
    },
    {
      "anonymous": false,
      "inputs": [
        {
          "indexed": true,
          "internalType": "uint256",
          "name": "tokenId",
          "type": "uint256"
        },
        {
          "indexed": true,
          "internalType": "uint256",
          "name": "exp",
          "type": "uint256"
        }
      ],
      "name": "EntryCacheHit",
      "type": "event"
    },
    {
      "anonymous": false,
      "inputs": [
        {
          "indexed": true,
          "internalType": "uint256",
          "name": "timestamp",
          "type": "uint256"
        },
        {
          "indexed": true,
          "internalType": "uint256",
          "name": "amount",
          "type": "uint256"
        }
      ],
      "name": "FeedPet",
      "type": "event"
    },
    {
      "anonymous": false,
      "inputs": [
        {
          "indexed": true,
          "internalType": "uint256",
          "name": "timestamp",
          "type": "uint256"
        },
        {
          "indexed": true,
          "internalType": "uint256",
          "name": "amount",
          "type": "uint256"
        }
      ],
      "name": "GrowPet",
      "type": "event"
    },
    {
      "anonymous": false,
      "inputs": [
        {
          "indexed": false,
          "internalType": "uint256",
          "name": "_tokenId",
          "type": "uint256"
        }
      ],
      "name": "MetadataUpdate",
      "type": "event"
    },
    {
      "anonymous": false,
      "inputs": [
        {
          "indexed": true,
          "internalType": "address",
          "name": "previousOwner",
          "type": "address"
        },
        {
          "indexed": true,
          "internalType": "address",
          "name": "newOwner",
          "type": "address"
        }
      ],
      "name": "OwnershipTransferred",
      "type": "event"
    },
    {
      "anonymous": false,
      "inputs": [
        {
          "indexed": true,
          "internalType": "uint256",
          "name": "len",
          "type": "uint256"
        }
      ],
      "name": "ReadPetMapping",
      "type": "event"
    },
    {
      "anonymous": false,
      "inputs": [
        {
          "indexed": true,
          "internalType": "uint256",
          "name": "tokenId",
          "type": "uint256"
        },
        {
          "indexed": true,
          "internalType": "uint256",
          "name": "lv",
          "type": "uint256"
        }
      ],
      "name": "SearchPetEntry",
      "type": "event"
    },
    {
      "anonymous": false,
      "inputs": [
        {
          "indexed": true,
          "internalType": "address",
          "name": "from",
          "type": "address"
        },
        {
          "indexed": true,
          "internalType": "address",
          "name": "to",
          "type": "address"
        },
        {
          "indexed": true,
          "internalType": "uint256",
          "name": "tokenId",
          "type": "uint256"
        }
      ],
      "name": "Transfer",
      "type": "event"
    },
    {
      "inputs": [],
      "name": "NAME",
      "outputs": [
        {
          "internalType": "string",
          "name": "",
          "type": "string"
        }
      ],
      "stateMutability": "view",
      "type": "function"
    },
    {
      "inputs": [
        {
          "internalType": "address",
          "name": "to",
          "type": "address"
        },
        {
          "internalType": "uint256",
          "name": "tokenId",
          "type": "uint256"
        }
      ],
      "name": "approve",
      "outputs": [],
      "stateMutability": "nonpayable",
      "type": "function"
    },
    {
      "inputs": [
        {
          "internalType": "address",
          "name": "owner",
          "type": "address"
        }
      ],
      "name": "balanceOf",
      "outputs": [
        {
          "internalType": "uint256",
          "name": "",
          "type": "uint256"
        }
      ],
      "stateMutability": "view",
      "type": "function"
    },
    {
      "inputs": [],
      "name": "claimFreePet",
      "outputs": [],
      "stateMutability": "nonpayable",
      "type": "function"
    },
    {
      "inputs": [
        {
          "internalType": "uint256",
          "name": "amount",
          "type": "uint256"
        }
      ],
      "name": "feedPetWithFood",
      "outputs": [],
      "stateMutability": "nonpayable",
      "type": "function"
    },
    {
      "inputs": [
        {
          "internalType": "uint256",
          "name": "amount",
          "type": "uint256"
        }
      ],
      "name": "feedPetWithX",
      "outputs": [],
      "stateMutability": "nonpayable",
      "type": "function"
    },
    {
      "inputs": [
        {
          "internalType": "uint256",
          "name": "tokenId",
          "type": "uint256"
        }
      ],
      "name": "getApproved",
      "outputs": [
        {
          "internalType": "address",
          "name": "",
          "type": "address"
        }
      ],
      "stateMutability": "view",
      "type": "function"
    },
    {
      "inputs": [
        {
          "internalType": "uint256",
          "name": "tokenId",
          "type": "uint256"
        }
      ],
      "name": "getExp",
      "outputs": [
        {
          "internalType": "uint256",
          "name": "",
          "type": "uint256"
        }
      ],
      "stateMutability": "view",
      "type": "function"
    },
    {
      "inputs": [
        {
          "internalType": "uint256",
          "name": "tokenId",
          "type": "uint256"
        }
      ],
      "name": "getLv",
      "outputs": [
        {
          "internalType": "uint256",
          "name": "",
          "type": "uint256"
        }
      ],
      "stateMutability": "view",
      "type": "function"
    },
    {
      "inputs": [
        {
          "internalType": "address",
          "name": "owner",
          "type": "address"
        }
      ],
      "name": "getPetIdOf",
      "outputs": [
        {
          "internalType": "uint256",
          "name": "",
          "type": "uint256"
        }
      ],
      "stateMutability": "view",
      "type": "function"
    },
    {
      "inputs": [
        {
          "internalType": "uint256",
          "name": "tokenId",
          "type": "uint256"
        }
      ],
      "name": "getPoint",
      "outputs": [
        {
          "internalType": "uint256",
          "name": "",
          "type": "uint256"
        }
      ],
      "stateMutability": "view",
      "type": "function"
    },
    {
      "inputs": [
        {
          "internalType": "uint256",
          "name": "amount",
          "type": "uint256"
        }
      ],
      "name": "growPet",
      "outputs": [],
      "stateMutability": "nonpayable",
      "type": "function"
    },
    {
      "inputs": [
        {
          "internalType": "address",
          "name": "owner",
          "type": "address"
        },
        {
          "internalType": "address",
          "name": "operator",
          "type": "address"
        }
      ],
      "name": "isApprovedForAll",
      "outputs": [
        {
          "internalType": "bool",
          "name": "",
          "type": "bool"
        }
      ],
      "stateMutability": "view",
      "type": "function"
    },
    {
      "inputs": [],
      "name": "name",
      "outputs": [
        {
          "internalType": "string",
          "name": "",
          "type": "string"
        }
      ],
      "stateMutability": "view",
      "type": "function"
    },
    {
      "inputs": [],
      "name": "owner",
      "outputs": [
        {
          "internalType": "address",
          "name": "",
          "type": "address"
        }
      ],
      "stateMutability": "view",
      "type": "function"
    },
    {
      "inputs": [
        {
          "internalType": "uint256",
          "name": "tokenId",
          "type": "uint256"
        }
      ],
      "name": "ownerOf",
      "outputs": [
        {
          "internalType": "address",
          "name": "",
          "type": "address"
        }
      ],
      "stateMutability": "view",
      "type": "function"
    },
    {
      "inputs": [
        {
          "internalType": "uint256[]",
          "name": "ups",
          "type": "uint256[]"
        },
        {
          "internalType": "uint256[]",
          "name": "downs",
          "type": "uint256[]"
        },
        {
          "internalType": "uint256[]",
          "name": "lvs",
          "type": "uint256[]"
        },
        {
          "internalType": "string[]",
          "name": "uris",
          "type": "string[]"
        }
      ],
      "name": "readPetMapping",
      "outputs": [],
      "stateMutability": "nonpayable",
      "type": "function"
    },
    {
      "inputs": [],
      "name": "renounceOwnership",
      "outputs": [],
      "stateMutability": "nonpayable",
      "type": "function"
    },
    {
      "inputs": [
        {
          "internalType": "address",
          "name": "from",
          "type": "address"
        },
        {
          "internalType": "address",
          "name": "to",
          "type": "address"
        },
        {
          "internalType": "uint256",
          "name": "tokenId",
          "type": "uint256"
        }
      ],
      "name": "safeTransferFrom",
      "outputs": [],
      "stateMutability": "nonpayable",
      "type": "function"
    },
    {
      "inputs": [
        {
          "internalType": "address",
          "name": "from",
          "type": "address"
        },
        {
          "internalType": "address",
          "name": "to",
          "type": "address"
        },
        {
          "internalType": "uint256",
          "name": "tokenId",
          "type": "uint256"
        },
        {
          "internalType": "bytes",
          "name": "data",
          "type": "bytes"
        }
      ],
      "name": "safeTransferFrom",
      "outputs": [],
      "stateMutability": "nonpayable",
      "type": "function"
    },
    {
      "inputs": [
        {
          "internalType": "address",
          "name": "operator",
          "type": "address"
        },
        {
          "internalType": "bool",
          "name": "approved",
          "type": "bool"
        }
      ],
      "name": "setApprovalForAll",
      "outputs": [],
      "stateMutability": "nonpayable",
      "type": "function"
    },
    {
      "inputs": [
        {
          "internalType": "bytes4",
          "name": "interfaceId",
          "type": "bytes4"
        }
      ],
      "name": "supportsInterface",
      "outputs": [
        {
          "internalType": "bool",
          "name": "",
          "type": "bool"
        }
      ],
      "stateMutability": "view",
      "type": "function"
    },
    {
      "inputs": [],
      "name": "symbol",
      "outputs": [
        {
          "internalType": "string",
          "name": "",
          "type": "string"
        }
      ],
      "stateMutability": "view",
      "type": "function"
    },
    {
      "inputs": [
        {
          "internalType": "uint256",
          "name": "tokenId",
          "type": "uint256"
        }
      ],
      "name": "tokenURI",
      "outputs": [
        {
          "internalType": "string",
          "name": "",
          "type": "string"
        }
      ],
      "stateMutability": "view",
      "type": "function"
    },
    {
      "inputs": [
        {
          "internalType": "address",
          "name": "from",
          "type": "address"
        },
        {
          "internalType": "address",
          "name": "to",
          "type": "address"
        },
        {
          "internalType": "uint256",
          "name": "tokenId",
          "type": "uint256"
        }
      ],
      "name": "transferFrom",
      "outputs": [],
      "stateMutability": "nonpayable",
      "type": "function"
    },
    {
      "inputs": [
        {
          "internalType": "address",
          "name": "newOwner",
          "type": "address"
        }
      ],
      "name": "transferOwnership",
      "outputs": [],
      "stateMutability": "nonpayable",
      "type": "function"
    },
    {
      "inputs": [],
      "name": "withdrawAllXToken",
      "outputs": [],
      "stateMutability": "nonpayable",
      "type": "function"
    },
    {
      "inputs": [
        {
          "internalType": "uint256",
          "name": "amount",
          "type": "uint256"
        }
      ],
      "name": "withdrawXToken",
      "outputs": [],
      "stateMutability": "nonpayable",
      "type": "function"
    },
    {
      "inputs": [],
      "name": "xToken",
      "outputs": [
        {
          "internalType": "contract IERC20",
          "name": "",
          "type": "address"
        }
      ],
      "stateMutability": "view",
      "type": "function"
    }
  ],
  "bytecode": "0x60806040526001600d553480156200001657600080fd5b50604051620029243803806200292483398101604081905262000039916200014f565b33604051806040016040528060098152602001681b595d18560814195d60ba1b815250604051806040016040528060048152602001631e14195d60e21b81525081600090816200008a919062000226565b50600162000099828262000226565b5050506001600160a01b038116620000cb57604051631e4fbdf760e01b81526000600482015260240160405180910390fd5b620000d681620000fd565b50600880546001600160a01b0319166001600160a01b0392909216919091179055620002f2565b600780546001600160a01b038381166001600160a01b0319831681179093556040519116919082907f8be0079c531659141344cd1fd0a4f28419497f9722a3daafe3b4186f6b6457e090600090a35050565b6000602082840312156200016257600080fd5b81516001600160a01b03811681146200017a57600080fd5b9392505050565b634e487b7160e01b600052604160045260246000fd5b600181811c90821680620001ac57607f821691505b602082108103620001cd57634e487b7160e01b600052602260045260246000fd5b50919050565b601f8211156200022157600081815260208120601f850160051c81016020861015620001fc5750805b601f850160051c820191505b818110156200021d5782815560010162000208565b5050505b505050565b81516001600160401b0381111562000242576200024262000181565b6200025a8162000253845462000197565b84620001d3565b602080601f831160018114620002925760008415620002795750858301515b600019600386901b1c1916600185901b1785556200021d565b600085815260208120601f198616915b82811015620002c357888601518255948401946001909101908401620002a2565b5085821015620002e25787850151600019600388901b60f8161c191681555b5050505050600190811b01905550565b61262280620003026000396000f3fe608060405234801561001057600080fd5b50600436106101cf5760003560e01c8063715018a611610104578063a3f4df7e116100a2578063e498922f11610071578063e498922f1461040e578063e985e9c514610431578063ee93eef914610444578063f2fde38b1461044c57600080fd5b8063a3f4df7e146103b2578063b88d4fde146103d5578063c87b56dd146103e8578063caf21cd9146103fb57600080fd5b80638da5cb5b116100de5780638da5cb5b14610373578063947d55bf1461038457806395d89b4114610397578063a22cb4651461039f57600080fd5b8063715018a614610335578063856dce6f1461033d578063869f1c8e1461035057600080fd5b806339f6284311610171578063626fa1071161014b578063626fa107146102d35780636352211e146102e6578063694a7e45146102f957806370a082311461032257600080fd5b806339f62843146102a557806342842e0e146102ad5780635fdb1dd1146102c057600080fd5b8063088b699e116101ad578063088b699e1461023c578063095ea7b31461024f57806323b872dd14610264578063292bbdc41461027757600080fd5b806301ffc9a7146101d457806306fdde03146101fc578063081812fc14610211575b600080fd5b6101e76101e2366004611e8e565b61045f565b60405190151581526020015b60405180910390f35b61020461048a565b6040516101f39190611efb565b61022461021f366004611f0e565b61051c565b6040516001600160a01b0390911681526020016101f3565b600854610224906001600160a01b031681565b61026261025d366004611f43565b610545565b005b610262610272366004611f6d565b610554565b610297610285366004611f0e565b60009081526009602052604090205490565b6040519081526020016101f3565b6102626105e4565b6102626102bb366004611f6d565b61064c565b6102626102ce366004611f0e565b61066c565b6102626102e1366004611ff5565b61079f565b6102246102f4366004611f0e565b610b2a565b6102976103073660046120b9565b6001600160a01b03166000908152600c602052604090205490565b6102976103303660046120b9565b610b35565b610262610b7d565b61026261034b366004611f0e565b610b8f565b61029761035e366004611f0e565b60009081526009602052604090206002015490565b6007546001600160a01b0316610224565b610262610392366004611f0e565b610ccd565b610204610d78565b6102626103ad3660046120e2565b610d87565b610204604051806040016040528060048152602001631e14195d60e21b81525081565b6102626103e336600461212f565b610d92565b6102046103f6366004611f0e565b610da9565b610262610409366004611f0e565b610eba565b61029761041c366004611f0e565b60009081526009602052604090206001015490565b6101e761043f36600461220b565b610ec3565b610262610ef1565b61026261045a3660046120b9565b610fac565b60006001600160e01b03198216632483248360e11b1480610484575061048482610fe7565b92915050565b6060600080546104999061223e565b80601f01602080910402602001604051908101604052809291908181526020018280546104c59061223e565b80156105125780601f106104e757610100808354040283529160200191610512565b820191906000526020600020905b8154815290600101906020018083116104f557829003601f168201915b5050505050905090565b600061052782611037565b506000828152600460205260409020546001600160a01b0316610484565b610550828233611070565b5050565b6001600160a01b03821661058357604051633250574960e11b8152600060048201526024015b60405180910390fd5b600061059083833361107d565b9050836001600160a01b0316816001600160a01b0316146105de576040516364283d7b60e01b81526001600160a01b038086166004830152602482018490528216604482015260640161057a565b50505050565b336000908152600c6020526040902054156106415760405162461bcd60e51b815260206004820152601760248201527f4d6563685065743a616c726561647920636c61696d6564000000000000000000604482015260640161057a565b61064a33611176565b565b61066783838360405180602001604052806000815250610d92565b505050565b610674611381565b6008546040516370a0823160e01b815230600482015282916001600160a01b0316906370a0823190602401602060405180830381865afa1580156106bc573d6000803e3d6000fd5b505050506040513d601f19601f820116820180604052508101906106e09190612278565b101561072a5760405162461bcd60e51b815260206004820152601960248201527826b2b1b42832ba1d3737ba1032b737bab3b4103c2a37b5b2b760391b604482015260640161057a565b60085460405163a9059cbb60e01b8152336004820152602481018390526001600160a01b039091169063a9059cbb906044016020604051808303816000875af115801561077b573d6000803e3d6000fd5b505050506040513d601f19601f820116820180604052508101906105509190612291565b8685146107e65760405162461bcd60e51b81526020600482015260156024820152744d6563685065743a6c656e677468206e6f7420657160581b604482015260640161057a565b84811461082d5760405162461bcd60e51b81526020600482015260156024820152744d6563685065743a6c656e677468206e6f7420657160581b604482015260640161057a565b600181101561087e5760405162461bcd60e51b815260206004820152601860248201527f4d6563685065743a757269732073686f756c64203e3d20310000000000000000604482015260640161057a565b8660005b61088d6001836122c4565b8110156109b557600a60405180608001604052808c8c858181106108b3576108b36122d7565b9050602002013581526020018a8a858181106108d1576108d16122d7565b9050602002013581526020018888858181106108ef576108ef6122d7565b90506020020135815260200186868581811061090d5761090d6122d7565b905060200281019061091f91906122ed565b8080601f01602080910402602001604051908101604052809392919081815260200183838082843760009201829052509390945250508354600181810186559482526020918290208451600490920201908155908301519381019390935550604081015160028301556060810151909190600382019061099f9082612382565b50505080806109ad90612442565b915050610882565b50600a60405180608001604052808b8b6001866109d291906122c4565b8181106109e1576109e16122d7565b90506020020135815260200189896002866109fc91906122c4565b818110610a0b57610a0b6122d7565b9050602002013581526020018787600186610a2691906122c4565b818110610a3557610a356122d7565b9050602002013581526020018585600186610a5091906122c4565b818110610a5f57610a5f6122d7565b9050602002810190610a7191906122ed565b8080601f016020809104026020016040519081016040528093929190818152602001838380828437600092018290525093909452505083546001818101865594825260209182902084516004909202019081559083015193810193909355506040810151600283015560608101519091906003820190610af19082612382565b50506040518291507f24cca90911613ac7a0abc282be872a604d5c127eb0c6e5a97b056f971597f8c790600090a2505050505050505050565b600061048482611037565b60006001600160a01b038216610b61576040516322718ad960e21b81526000600482015260240161057a565b506001600160a01b031660009081526003602052604090205490565b610b85611381565b61064a60006113ae565b6008546040516370a0823160e01b815233600482015282916001600160a01b0316906370a0823190602401602060405180830381865afa158015610bd7573d6000803e3d6000fd5b505050506040513d601f19601f82011682018060405250810190610bfb9190612278565b1015610c455760405162461bcd60e51b815260206004820152601960248201527826b2b1b42832ba1d3737ba1032b737bab3b4103c2a37b5b2b760391b604482015260640161057a565b6008546040516323b872dd60e01b8152336004820152306024820152604481018390526001600160a01b03909116906323b872dd906064016020604051808303816000875af1158015610c9c573d6000803e3d6000fd5b505050506040513d601f19601f82011682018060405250810190610cc09190612291565b50610cca81611400565b50565b336000908152600c60205260409020546001811015610d215760405162461bcd60e51b815260206004820152601060248201526f135958da14195d0e9b9bdd081b5a5b9d60821b604482015260640161057a565b60008181526009602052604081206002018054849290610d4290849061245b565b9091555050604051829042907fff31530cada36dc84e415b1545f7c017655c6827974a702de01668da2bdecce890600090a35050565b6060600180546104999061223e565b6105503383836114e5565b610d9d848484610554565b6105de84848484611584565b6060610db482611037565b5060008281526006602052604081208054610dce9061223e565b80601f0160208091040260200160405190810160405280929190818152602001828054610dfa9061223e565b8015610e475780601f10610e1c57610100808354040283529160200191610e47565b820191906000526020600020905b815481529060010190602001808311610e2a57829003601f168201915b505050505090506000610e6560408051602081019091526000815290565b90508051600003610e77575092915050565b815115610ea9578082604051602001610e9192919061246e565b60405160208183030381529060405292505050919050565b610eb2846116ad565b949350505050565b610cca81611400565b6001600160a01b03918216600090815260056020908152604080832093909416825291909152205460ff1690565b610ef9611381565b6008546040516370a0823160e01b81523060048201526000916001600160a01b0316906370a0823190602401602060405180830381865afa158015610f42573d6000803e3d6000fd5b505050506040513d601f19601f82011682018060405250810190610f669190612278565b90506000811161072a5760405162461bcd60e51b815260206004820152601160248201527026b2b1b42832ba1d3737903c2a37b5b2b760791b604482015260640161057a565b610fb4611381565b6001600160a01b038116610fde57604051631e4fbdf760e01b81526000600482015260240161057a565b610cca816113ae565b60006001600160e01b031982166380ac58cd60e01b148061101857506001600160e01b03198216635b5e139f60e01b145b8061048457506301ffc9a760e01b6001600160e01b0319831614610484565b6000818152600260205260408120546001600160a01b03168061048457604051637e27328960e01b81526004810184905260240161057a565b6106678383836001611722565b6000828152600260205260408120546001600160a01b03908116908316156110aa576110aa818486611828565b6001600160a01b038116156110e8576110c7600085600080611722565b6001600160a01b038116600090815260036020526040902080546000190190555b6001600160a01b03851615611117576001600160a01b0385166000908152600360205260409020805460010190555b60008481526002602052604080822080546001600160a01b0319166001600160a01b0389811691821790925591518793918516917fddf252ad1be2c89b69c2b068fc378daa952ba7f163c4a11628f55a4df523b3ef91a4949350505050565b61118281600d5461188c565b61123b600d54600a60008154811061119c5761119c6122d7565b906000526020600020906004020160030180546111b89061223e565b80601f01602080910402602001604051908101604052809291908181526020018280546111e49061223e565b80156112315780601f1061120657610100808354040283529160200191611231565b820191906000526020600020905b81548152906001019060200180831161121457829003601f168201915b50505050506118a6565b6040518060800160405280600081526020016000815260200160008152602001600a60008154811061126f5761126f6122d7565b9060005260206000209060040201600301805461128b9061223e565b80601f01602080910402602001604051908101604052809291908181526020018280546112b79061223e565b80156113045780601f106112d957610100808354040283529160200191611304565b820191906000526020600020905b8154815290600101906020018083116112e757829003601f168201915b505050919092525050600d54600090815260096020908152604091829020835181559083015160018201559082015160028201556060820151600382019061134c9082612382565b5050600d80546001600160a01b0384166000908152600c6020526040812082905590925061137983612442565b919050555050565b6007546001600160a01b0316331461064a5760405163118cdaa760e01b815233600482015260240161057a565b600780546001600160a01b038381166001600160a01b0319831681179093556040519116919082907f8be0079c531659141344cd1fd0a4f28419497f9722a3daafe3b4186f6b6457e090600090a35050565b336000908152600c602052604090205460018110156114545760405162461bcd60e51b815260206004820152601060248201526f135958da14195d0e9b9bdd081b5a5b9d60821b604482015260640161057a565b6000818152600960205260408120600101805484929061147590849061245b565b9091555050604051829042907f74ba249ddff02a03d9b9d32e32e8f0a337456da2a3279406c53b6c5d1444e97990600090a36000818152600960205260409020600101546114c390826118f6565b600081815260096020526040902060030180546105509183916111b89061223e565b6001600160a01b03821661151757604051630b61174360e31b81526001600160a01b038316600482015260240161057a565b6001600160a01b03838116600081815260056020908152604080832094871680845294825291829020805460ff191686151590811790915591519182527f17307eab39ab6107e8899845ad3d59bd9653f200f220920489ca2b5937696c31910160405180910390a3505050565b6001600160a01b0383163b156105de57604051630a85bd0160e11b81526001600160a01b0384169063150b7a02906115c690339088908790879060040161249d565b6020604051808303816000875af1925050508015611601575060408051601f3d908101601f191682019092526115fe918101906124da565b60015b61166a573d80801561162f576040519150601f19603f3d011682016040523d82523d6000602084013e611634565b606091505b50805160000361166257604051633250574960e11b81526001600160a01b038516600482015260240161057a565b805181602001fd5b6001600160e01b03198116630a85bd0160e11b146116a657604051633250574960e11b81526001600160a01b038516600482015260240161057a565b5050505050565b60606116b882611037565b5060006116d060408051602081019091526000815290565b905060008151116116f0576040518060200160405280600081525061171b565b806116fa84611c2e565b60405160200161170b92919061246e565b6040516020818303038152906040525b9392505050565b808061173657506001600160a01b03821615155b156117f857600061174684611037565b90506001600160a01b038316158015906117725750826001600160a01b0316816001600160a01b031614155b801561178557506117838184610ec3565b155b156117ae5760405163a9fbf51f60e01b81526001600160a01b038416600482015260240161057a565b81156117f65783856001600160a01b0316826001600160a01b03167f8c5be1e5ebec7d5bd14f71427d1e84f3dd0314c0f7b2291e5b200ac8c7c3b92560405160405180910390a45b505b5050600090815260046020526040902080546001600160a01b0319166001600160a01b0392909216919091179055565b611833838383611cc1565b610667576001600160a01b03831661186157604051637e27328960e01b81526004810182905260240161057a565b60405163177e802f60e01b81526001600160a01b03831660048201526024810182905260440161057a565b610550828260405180602001604052806000815250611d24565b60008281526006602052604090206118be8282612382565b506040518281527ff8e1a15aba9398e019f0b49df1a4fde98ee17ae345cb5f6b5e2c27f5033e8ce79060200160405180910390a15050565b600a546000036119485760405162461bcd60e51b815260206004820152601960248201527f4d6563685065743a206d617070696e6720697320656d70747900000000000000604482015260640161057a565b6000828152600b6020526040902060030180546119649061223e565b1590506119d1576000828152600b6020908152604080832060028101548585526009909352922090815560039081019161199f9101826124f7565b50604051829082907f8393903d33d9e9d8a753c3caa3ad93c65c8fabcef79e15a6f3bb7b3d7a6e9ca690600090a35050565b600a5460009081906119e5906001906122c4565b905060005b818311611af957600060026119ff85856122c4565b611a0991906125ca565b611a13908561245b565b905085600a8281548110611a2957611a296122d7565b90600052602060002090600402016000015411611a5257611a4b81600161245b565b9350611af3565b85600a8281548110611a6657611a666122d7565b9060005260206000209060040201600101541115611a9057611a896001826122c4565b9250611af3565b85600a8281548110611aa457611aa46122d7565b90600052602060002090600402016001015411158015611ae75750600a8181548110611ad257611ad26122d7565b90600052602060002090600402016000015486105b15611af3579050611af9565b506119ea565b600a8181548110611b0c57611b0c6122d7565b6000918252602080832087845260099091526040909220600390810192611b38926004020101826124f7565b50600a8181548110611b4c57611b4c6122d7565b60009182526020808320600260049093020191909101548683526009909152604090912055600a805482908110611b8557611b856122d7565b600091825260208083206002600490930201820154888452600b90915260409092200155600a805482908110611bbd57611bbd6122d7565b60009182526020808320888452600b9091526040909220600390810192611be9926004020101826124f7565b506000858152600b6020526040808220600201549051909186917ff24d78a4dff5b3f6e0939d0759dcbd9070ab52762dcf4bc5e0d5f9f2a3760c669190a35050505050565b60606000611c3b83611d3b565b600101905060008167ffffffffffffffff811115611c5b57611c5b612119565b6040519080825280601f01601f191660200182016040528015611c85576020820181803683370190505b5090508181016020015b600019016f181899199a1a9b1b9c1cb0b131b232b360811b600a86061a8153600a8504945084611c8f57509392505050565b60006001600160a01b03831615801590610eb25750826001600160a01b0316846001600160a01b03161480611cfb5750611cfb8484610ec3565b80610eb25750506000908152600460205260409020546001600160a01b03908116911614919050565b611d2e8383611e13565b6106676000848484611584565b60008072184f03e93ff9f4daa797ed6e38ed64bf6a1f0160401b8310611d7a5772184f03e93ff9f4daa797ed6e38ed64bf6a1f0160401b830492506040015b6d04ee2d6d415b85acef81000000008310611da6576d04ee2d6d415b85acef8100000000830492506020015b662386f26fc100008310611dc457662386f26fc10000830492506010015b6305f5e1008310611ddc576305f5e100830492506008015b6127108310611df057612710830492506004015b60648310611e02576064830492506002015b600a83106104845760010192915050565b6001600160a01b038216611e3d57604051633250574960e11b81526000600482015260240161057a565b6000611e4b8383600061107d565b90506001600160a01b03811615610667576040516339e3563760e11b81526000600482015260240161057a565b6001600160e01b031981168114610cca57600080fd5b600060208284031215611ea057600080fd5b813561171b81611e78565b60005b83811015611ec6578181015183820152602001611eae565b50506000910152565b60008151808452611ee7816020860160208601611eab565b601f01601f19169290920160200192915050565b60208152600061171b6020830184611ecf565b600060208284031215611f2057600080fd5b5035919050565b80356001600160a01b0381168114611f3e57600080fd5b919050565b60008060408385031215611f5657600080fd5b611f5f83611f27565b946020939093013593505050565b600080600060608486031215611f8257600080fd5b611f8b84611f27565b9250611f9960208501611f27565b9150604084013590509250925092565b60008083601f840112611fbb57600080fd5b50813567ffffffffffffffff811115611fd357600080fd5b6020830191508360208260051b8501011115611fee57600080fd5b9250929050565b6000806000806000806000806080898b03121561201157600080fd5b883567ffffffffffffffff8082111561202957600080fd5b6120358c838d01611fa9565b909a50985060208b013591508082111561204e57600080fd5b61205a8c838d01611fa9565b909850965060408b013591508082111561207357600080fd5b61207f8c838d01611fa9565b909650945060608b013591508082111561209857600080fd5b506120a58b828c01611fa9565b999c989b5096995094979396929594505050565b6000602082840312156120cb57600080fd5b61171b82611f27565b8015158114610cca57600080fd5b600080604083850312156120f557600080fd5b6120fe83611f27565b9150602083013561210e816120d4565b809150509250929050565b634e487b7160e01b600052604160045260246000fd5b6000806000806080858703121561214557600080fd5b61214e85611f27565b935061215c60208601611f27565b925060408501359150606085013567ffffffffffffffff8082111561218057600080fd5b818701915087601f83011261219457600080fd5b8135818111156121a6576121a6612119565b604051601f8201601f19908116603f011681019083821181831017156121ce576121ce612119565b816040528281528a60208487010111156121e757600080fd5b82602086016020830137600060208483010152809550505050505092959194509250565b6000806040838503121561221e57600080fd5b61222783611f27565b915061223560208401611f27565b90509250929050565b600181811c9082168061225257607f821691505b60208210810361227257634e487b7160e01b600052602260045260246000fd5b50919050565b60006020828403121561228a57600080fd5b5051919050565b6000602082840312156122a357600080fd5b815161171b816120d4565b634e487b7160e01b600052601160045260246000fd5b81810381811115610484576104846122ae565b634e487b7160e01b600052603260045260246000fd5b6000808335601e1984360301811261230457600080fd5b83018035915067ffffffffffffffff82111561231f57600080fd5b602001915036819003821315611fee57600080fd5b601f82111561066757600081815260208120601f850160051c8101602086101561235b5750805b601f850160051c820191505b8181101561237a57828155600101612367565b505050505050565b815167ffffffffffffffff81111561239c5761239c612119565b6123b0816123aa845461223e565b84612334565b602080601f8311600181146123e557600084156123cd5750858301515b600019600386901b1c1916600185901b17855561237a565b600085815260208120601f198616915b82811015612414578886015182559484019460019091019084016123f5565b50858210156124325787850151600019600388901b60f8161c191681555b5050505050600190811b01905550565b600060018201612454576124546122ae565b5060010190565b80820180821115610484576104846122ae565b60008351612480818460208801611eab565b835190830190612494818360208801611eab565b01949350505050565b6001600160a01b03858116825284166020820152604081018390526080606082018190526000906124d090830184611ecf565b9695505050505050565b6000602082840312156124ec57600080fd5b815161171b81611e78565b818103612502575050565b61250c825461223e565b67ffffffffffffffff81111561252457612524612119565b612532816123aa845461223e565b6000601f821160018114612566576000831561254e5750848201545b600019600385901b1c1916600184901b1784556116a6565b600085815260209020601f19841690600086815260209020845b838110156125a05782860154825560019586019590910190602001612580565b50858310156124325793015460001960f8600387901b161c19169092555050600190811b01905550565b6000826125e757634e487b7160e01b600052601260045260246000fd5b50049056fea26469706673582212208d453c06cc55c14b6b62cce68523782838f297493e49923e0bc7b998606a49e964736f6c63430008140033",
  "linkReferences": {},
  "deployedLinkReferences": {}
}