{
  "_format": "hh-sol-artifact-1",
  "contractName": "MechPet",
  "sourceName": "contracts/token/MechPet.sol",
  "abi": [
    {
      "inputs": [
        {
          "internalType": "address",
          "name": "xTokenAddress",
          "type": "address"
        }
      ],
      "stateMutability": "nonpayable",
      "type": "constructor"
    },
    {
      "inputs": [
        {
          "internalType": "address",
          "name": "sender",
          "type": "address"
        },
        {
          "internalType": "uint256",
          "name": "tokenId",
          "type": "uint256"
        },
        {
          "internalType": "address",
          "name": "owner",
          "type": "address"
        }
      ],
      "name": "ERC721IncorrectOwner",
      "type": "error"
    },
    {
      "inputs": [
        {
          "internalType": "address",
          "name": "operator",
          "type": "address"
        },
        {
          "internalType": "uint256",
          "name": "tokenId",
          "type": "uint256"
        }
      ],
      "name": "ERC721InsufficientApproval",
      "type": "error"
    },
    {
      "inputs": [
        {
          "internalType": "address",
          "name": "approver",
          "type": "address"
        }
      ],
      "name": "ERC721InvalidApprover",
      "type": "error"
    },
    {
      "inputs": [
        {
          "internalType": "address",
          "name": "operator",
          "type": "address"
        }
      ],
      "name": "ERC721InvalidOperator",
      "type": "error"
    },
    {
      "inputs": [
        {
          "internalType": "address",
          "name": "owner",
          "type": "address"
        }
      ],
      "name": "ERC721InvalidOwner",
      "type": "error"
    },
    {
      "inputs": [
        {
          "internalType": "address",
          "name": "receiver",
          "type": "address"
        }
      ],
      "name": "ERC721InvalidReceiver",
      "type": "error"
    },
    {
      "inputs": [
        {
          "internalType": "address",
          "name": "sender",
          "type": "address"
        }
      ],
      "name": "ERC721InvalidSender",
      "type": "error"
    },
    {
      "inputs": [
        {
          "internalType": "uint256",
          "name": "tokenId",
          "type": "uint256"
        }
      ],
      "name": "ERC721NonexistentToken",
      "type": "error"
    },
    {
      "inputs": [
        {
          "internalType": "address",
          "name": "owner",
          "type": "address"
        }
      ],
      "name": "OwnableInvalidOwner",
      "type": "error"
    },
    {
      "inputs": [
        {
          "internalType": "address",
          "name": "account",
          "type": "address"
        }
      ],
      "name": "OwnableUnauthorizedAccount",
      "type": "error"
    },
    {
      "anonymous": false,
      "inputs": [
        {
          "indexed": true,
          "internalType": "address",
          "name": "owner",
          "type": "address"
        },
        {
          "indexed": true,
          "internalType": "address",
          "name": "approved",
          "type": "address"
        },
        {
          "indexed": true,
          "internalType": "uint256",
          "name": "tokenId",
          "type": "uint256"
        }
      ],
      "name": "Approval",
      "type": "event"
    },
    {
      "anonymous": false,
      "inputs": [
        {
          "indexed": true,
          "internalType": "address",
          "name": "owner",
          "type": "address"
        },
        {
          "indexed": true,
          "internalType": "address",
          "name": "operator",
          "type": "address"
        },
        {
          "indexed": false,
          "internalType": "bool",
          "name": "approved",
          "type": "bool"
        }
      ],
      "name": "ApprovalForAll",
      "type": "event"
    },
    {
      "anonymous": false,
      "inputs": [
        {
          "indexed": false,
          "internalType": "uint256",
          "name": "_fromTokenId",
          "type": "uint256"
        },
        {
          "indexed": false,
          "internalType": "uint256",
          "name": "_toTokenId",
          "type": "uint256"
        }
      ],
      "name": "BatchMetadataUpdate",
      "type": "event"
    },
    {
      "anonymous": false,
      "inputs": [
        {
          "indexed": true,
          "internalType": "uint256",
          "name": "tokenId",
          "type": "uint256"
        },
        {
          "indexed": true,
          "internalType": "uint256",
          "name": "exp",
          "type": "uint256"
        }
      ],
      "name": "EntryCacheHit",
      "type": "event"
    },
    {
      "anonymous": false,
      "inputs": [
        {
          "indexed": true,
          "internalType": "uint256",
          "name": "timestamp",
          "type": "uint256"
        },
        {
          "indexed": true,
          "internalType": "uint256",
          "name": "amount",
          "type": "uint256"
        }
      ],
      "name": "FeedPet",
      "type": "event"
    },
    {
      "anonymous": false,
      "inputs": [
        {
          "indexed": true,
          "internalType": "uint256",
          "name": "timestamp",
          "type": "uint256"
        },
        {
          "indexed": true,
          "internalType": "uint256",
          "name": "amount",
          "type": "uint256"
        }
      ],
      "name": "GrowPet",
      "type": "event"
    },
    {
      "anonymous": false,
      "inputs": [
        {
          "indexed": false,
          "internalType": "uint256",
          "name": "_tokenId",
          "type": "uint256"
        }
      ],
      "name": "MetadataUpdate",
      "type": "event"
    },
    {
      "anonymous": false,
      "inputs": [
        {
          "indexed": true,
          "internalType": "address",
          "name": "previousOwner",
          "type": "address"
        },
        {
          "indexed": true,
          "internalType": "address",
          "name": "newOwner",
          "type": "address"
        }
      ],
      "name": "OwnershipTransferred",
      "type": "event"
    },
    {
      "anonymous": false,
      "inputs": [
        {
          "indexed": true,
          "internalType": "uint256",
          "name": "len",
          "type": "uint256"
        }
      ],
      "name": "ReadPetMapping",
      "type": "event"
    },
    {
      "anonymous": false,
      "inputs": [
        {
          "indexed": true,
          "internalType": "uint256",
          "name": "tokenId",
          "type": "uint256"
        },
        {
          "indexed": true,
          "internalType": "uint256",
          "name": "lv",
          "type": "uint256"
        }
      ],
      "name": "SearchPetEntry",
      "type": "event"
    },
    {
      "anonymous": false,
      "inputs": [
        {
          "indexed": true,
          "internalType": "address",
          "name": "from",
          "type": "address"
        },
        {
          "indexed": true,
          "internalType": "address",
          "name": "to",
          "type": "address"
        },
        {
          "indexed": true,
          "internalType": "uint256",
          "name": "tokenId",
          "type": "uint256"
        }
      ],
      "name": "Transfer",
      "type": "event"
    },
    {
      "inputs": [],
      "name": "NAME",
      "outputs": [
        {
          "internalType": "string",
          "name": "",
          "type": "string"
        }
      ],
      "stateMutability": "view",
      "type": "function"
    },
    {
      "inputs": [
        {
          "internalType": "address",
          "name": "to",
          "type": "address"
        },
        {
          "internalType": "uint256",
          "name": "tokenId",
          "type": "uint256"
        }
      ],
      "name": "approve",
      "outputs": [],
      "stateMutability": "nonpayable",
      "type": "function"
    },
    {
      "inputs": [
        {
          "internalType": "address",
          "name": "owner",
          "type": "address"
        }
      ],
      "name": "balanceOf",
      "outputs": [
        {
          "internalType": "uint256",
          "name": "",
          "type": "uint256"
        }
      ],
      "stateMutability": "view",
      "type": "function"
    },
    {
      "inputs": [
        {
          "internalType": "enum MechPet.PetType",
          "name": "petType",
          "type": "uint8"
        }
      ],
      "name": "claimFreePet",
      "outputs": [],
      "stateMutability": "nonpayable",
      "type": "function"
    },
    {
      "inputs": [
        {
          "internalType": "uint256",
          "name": "amount",
          "type": "uint256"
        },
        {
          "internalType": "uint256",
          "name": "exp",
          "type": "uint256"
        }
      ],
      "name": "feedPetWithFood",
      "outputs": [],
      "stateMutability": "nonpayable",
      "type": "function"
    },
    {
      "inputs": [
        {
          "internalType": "uint256",
          "name": "amount",
          "type": "uint256"
        }
      ],
      "name": "feedPetWithX",
      "outputs": [],
      "stateMutability": "nonpayable",
      "type": "function"
    },
    {
      "inputs": [
        {
          "internalType": "uint256",
          "name": "tokenId",
          "type": "uint256"
        }
      ],
      "name": "getApproved",
      "outputs": [
        {
          "internalType": "address",
          "name": "",
          "type": "address"
        }
      ],
      "stateMutability": "view",
      "type": "function"
    },
    {
      "inputs": [
        {
          "internalType": "uint256",
          "name": "tokenId",
          "type": "uint256"
        }
      ],
      "name": "getExp",
      "outputs": [
        {
          "internalType": "uint256",
          "name": "",
          "type": "uint256"
        }
      ],
      "stateMutability": "view",
      "type": "function"
    },
    {
      "inputs": [
        {
          "internalType": "uint256",
          "name": "tokenId",
          "type": "uint256"
        }
      ],
      "name": "getLv",
      "outputs": [
        {
          "internalType": "uint256",
          "name": "",
          "type": "uint256"
        }
      ],
      "stateMutability": "view",
      "type": "function"
    },
    {
      "inputs": [
        {
          "internalType": "address",
          "name": "owner",
          "type": "address"
        }
      ],
      "name": "getPetIdOf",
      "outputs": [
        {
          "internalType": "uint256",
          "name": "",
          "type": "uint256"
        }
      ],
      "stateMutability": "view",
      "type": "function"
    },
    {
      "inputs": [
        {
          "internalType": "uint256",
          "name": "tokenId",
          "type": "uint256"
        }
      ],
      "name": "getPoint",
      "outputs": [
        {
          "internalType": "uint256",
          "name": "",
          "type": "uint256"
        }
      ],
      "stateMutability": "view",
      "type": "function"
    },
    {
      "inputs": [
        {
          "internalType": "uint256",
          "name": "amount",
          "type": "uint256"
        }
      ],
      "name": "growPet",
      "outputs": [],
      "stateMutability": "nonpayable",
      "type": "function"
    },
    {
      "inputs": [
        {
          "internalType": "address",
          "name": "owner",
          "type": "address"
        },
        {
          "internalType": "address",
          "name": "operator",
          "type": "address"
        }
      ],
      "name": "isApprovedForAll",
      "outputs": [
        {
          "internalType": "bool",
          "name": "",
          "type": "bool"
        }
      ],
      "stateMutability": "view",
      "type": "function"
    },
    {
      "inputs": [],
      "name": "name",
      "outputs": [
        {
          "internalType": "string",
          "name": "",
          "type": "string"
        }
      ],
      "stateMutability": "view",
      "type": "function"
    },
    {
      "inputs": [
        {
          "internalType": "uint256",
          "name": "",
          "type": "uint256"
        }
      ],
      "name": "nextValidFeedWithX",
      "outputs": [
        {
          "internalType": "uint256",
          "name": "",
          "type": "uint256"
        }
      ],
      "stateMutability": "view",
      "type": "function"
    },
    {
      "inputs": [],
      "name": "owner",
      "outputs": [
        {
          "internalType": "address",
          "name": "",
          "type": "address"
        }
      ],
      "stateMutability": "view",
      "type": "function"
    },
    {
      "inputs": [
        {
          "internalType": "uint256",
          "name": "tokenId",
          "type": "uint256"
        }
      ],
      "name": "ownerOf",
      "outputs": [
        {
          "internalType": "address",
          "name": "",
          "type": "address"
        }
      ],
      "stateMutability": "view",
      "type": "function"
    },
    {
      "inputs": [
        {
          "internalType": "uint256[]",
          "name": "ups",
          "type": "uint256[]"
        },
        {
          "internalType": "uint256[]",
          "name": "downs",
          "type": "uint256[]"
        },
        {
          "internalType": "uint256[]",
          "name": "lvs",
          "type": "uint256[]"
        },
        {
          "internalType": "string[]",
          "name": "uris",
          "type": "string[]"
        }
      ],
      "name": "readPetMapping",
      "outputs": [],
      "stateMutability": "nonpayable",
      "type": "function"
    },
    {
      "inputs": [],
      "name": "renounceOwnership",
      "outputs": [],
      "stateMutability": "nonpayable",
      "type": "function"
    },
    {
      "inputs": [
        {
          "internalType": "address",
          "name": "owner",
          "type": "address"
        }
      ],
      "name": "reset",
      "outputs": [],
      "stateMutability": "nonpayable",
      "type": "function"
    },
    {
      "inputs": [
        {
          "internalType": "address",
          "name": "from",
          "type": "address"
        },
        {
          "internalType": "address",
          "name": "to",
          "type": "address"
        },
        {
          "internalType": "uint256",
          "name": "tokenId",
          "type": "uint256"
        }
      ],
      "name": "safeTransferFrom",
      "outputs": [],
      "stateMutability": "nonpayable",
      "type": "function"
    },
    {
      "inputs": [
        {
          "internalType": "address",
          "name": "from",
          "type": "address"
        },
        {
          "internalType": "address",
          "name": "to",
          "type": "address"
        },
        {
          "internalType": "uint256",
          "name": "tokenId",
          "type": "uint256"
        },
        {
          "internalType": "bytes",
          "name": "data",
          "type": "bytes"
        }
      ],
      "name": "safeTransferFrom",
      "outputs": [],
      "stateMutability": "nonpayable",
      "type": "function"
    },
    {
      "inputs": [
        {
          "internalType": "address",
          "name": "operator",
          "type": "address"
        },
        {
          "internalType": "bool",
          "name": "approved",
          "type": "bool"
        }
      ],
      "name": "setApprovalForAll",
      "outputs": [],
      "stateMutability": "nonpayable",
      "type": "function"
    },
    {
      "inputs": [
        {
          "internalType": "bytes4",
          "name": "interfaceId",
          "type": "bytes4"
        }
      ],
      "name": "supportsInterface",
      "outputs": [
        {
          "internalType": "bool",
          "name": "",
          "type": "bool"
        }
      ],
      "stateMutability": "view",
      "type": "function"
    },
    {
      "inputs": [],
      "name": "symbol",
      "outputs": [
        {
          "internalType": "string",
          "name": "",
          "type": "string"
        }
      ],
      "stateMutability": "view",
      "type": "function"
    },
    {
      "inputs": [
        {
          "internalType": "uint256",
          "name": "tokenId",
          "type": "uint256"
        }
      ],
      "name": "tokenURI",
      "outputs": [
        {
          "internalType": "string",
          "name": "",
          "type": "string"
        }
      ],
      "stateMutability": "view",
      "type": "function"
    },
    {
      "inputs": [
        {
          "internalType": "address",
          "name": "from",
          "type": "address"
        },
        {
          "internalType": "address",
          "name": "to",
          "type": "address"
        },
        {
          "internalType": "uint256",
          "name": "tokenId",
          "type": "uint256"
        }
      ],
      "name": "transferFrom",
      "outputs": [],
      "stateMutability": "nonpayable",
      "type": "function"
    },
    {
      "inputs": [
        {
          "internalType": "address",
          "name": "newOwner",
          "type": "address"
        }
      ],
      "name": "transferOwnership",
      "outputs": [],
      "stateMutability": "nonpayable",
      "type": "function"
    },
    {
      "inputs": [],
      "name": "withdrawAllXToken",
      "outputs": [],
      "stateMutability": "nonpayable",
      "type": "function"
    },
    {
      "inputs": [
        {
          "internalType": "uint256",
          "name": "amount",
          "type": "uint256"
        }
      ],
      "name": "withdrawXToken",
      "outputs": [],
      "stateMutability": "nonpayable",
      "type": "function"
    }
  ],
  "bytecode": "0x608060405260186009556001600f553480156200001b57600080fd5b5060405162002c7138038062002c718339810160408190526200003e9162000154565b33604051806040016040528060098152602001681b595d18560814195d60ba1b815250604051806040016040528060048152602001631e14195d60e21b81525081600090816200008f91906200022b565b5060016200009e82826200022b565b5050506001600160a01b038116620000d057604051631e4fbdf760e01b81526000600482015260240160405180910390fd5b620000db8162000102565b50600880546001600160a01b0319166001600160a01b0392909216919091179055620002f7565b600780546001600160a01b038381166001600160a01b0319831681179093556040519116919082907f8be0079c531659141344cd1fd0a4f28419497f9722a3daafe3b4186f6b6457e090600090a35050565b6000602082840312156200016757600080fd5b81516001600160a01b03811681146200017f57600080fd5b9392505050565b634e487b7160e01b600052604160045260246000fd5b600181811c90821680620001b157607f821691505b602082108103620001d257634e487b7160e01b600052602260045260246000fd5b50919050565b601f8211156200022657600081815260208120601f850160051c81016020861015620002015750805b601f850160051c820191505b8181101562000222578281556001016200020d565b5050505b505050565b81516001600160401b0381111562000247576200024762000186565b6200025f816200025884546200019c565b84620001d8565b602080601f8311600181146200029757600084156200027e5750858301515b600019600386901b1c1916600185901b17855562000222565b600085815260208120601f198616915b82811015620002c857888601518255948401946001909101908401620002a7565b5085821015620002e75787850151600019600388901b60f8161c191681555b5050505050600190811b01905550565b61296a80620003076000396000f3fe608060405234801561001057600080fd5b50600436106101da5760003560e01c80638da5cb5b11610104578063caf21cd9116100a2578063e498922f11610071578063e498922f14610444578063e985e9c514610467578063ee93eef91461047a578063f2fde38b1461048257600080fd5b8063caf21cd9146103eb578063cfe152a5146103fe578063ddc83d9914610411578063e0e643801461043157600080fd5b8063a22cb465116100de578063a22cb4651461038f578063a3f4df7e146103a2578063b88d4fde146103c5578063c87b56dd146103d857600080fd5b80638da5cb5b14610363578063947d55bf1461037457806395d89b411461038757600080fd5b80635fdb1dd11161017c5780636b8ab97d1161014b5780636b8ab97d1461031257806370a0823114610325578063715018a614610338578063869f1c8e1461034057600080fd5b80635fdb1dd1146102b0578063626fa107146102c35780636352211e146102d6578063694a7e45146102e957600080fd5b8063095ea7b3116101b8578063095ea7b31461024757806323b872dd1461025c578063292bbdc41461026f57806342842e0e1461029d57600080fd5b806301ffc9a7146101df57806306fdde0314610207578063081812fc1461021c575b600080fd5b6101f26101ed3660046120f3565b610495565b60405190151581526020015b60405180910390f35b61020f6104c0565b6040516101fe9190612167565b61022f61022a36600461217a565b610552565b6040516001600160a01b0390911681526020016101fe565b61025a6102553660046121af565b61057b565b005b61025a61026a3660046121d9565b61058a565b61028f61027d36600461217a565b6000908152600a602052604090205490565b6040519081526020016101fe565b61025a6102ab3660046121d9565b61061a565b61025a6102be36600461217a565b61063a565b61025a6102d1366004612261565b61076d565b61022f6102e436600461217a565b610af8565b61028f6102f7366004612325565b6001600160a01b03166000908152600d602052604090205490565b61025a610320366004612325565b610b03565b61028f610333366004612325565b610c74565b61025a610cbc565b61028f61034e36600461217a565b6000908152600a602052604090206002015490565b6007546001600160a01b031661022f565b61025a61038236600461217a565b610cd0565b61020f610d58565b61025a61039d36600461234e565b610d67565b61020f604051806040016040528060048152602001631e14195d60e21b81525081565b61025a6103d336600461239b565b610d72565b61020f6103e636600461217a565b610d89565b61025a6103f936600461217a565b610db5565b61025a61040c366004612477565b610e88565b61028f61041f36600461217a565b600e6020526000908152604090205481565b61025a61043f366004612499565b610fc3565b61028f61045236600461217a565b6000908152600a602052604090206001015490565b6101f26104753660046124ba565b61102a565b61025a611058565b61025a610490366004612325565b611113565b60006001600160e01b03198216632483248360e11b14806104ba57506104ba8261114e565b92915050565b6060600080546104cf906124ed565b80601f01602080910402602001604051908101604052809291908181526020018280546104fb906124ed565b80156105485780601f1061051d57610100808354040283529160200191610548565b820191906000526020600020905b81548152906001019060200180831161052b57829003601f168201915b5050505050905090565b600061055d8261119e565b506000828152600460205260409020546001600160a01b03166104ba565b6105868282336111d7565b5050565b6001600160a01b0382166105b957604051633250574960e11b8152600060048201526024015b60405180910390fd5b60006105c68383336111e4565b9050836001600160a01b0316816001600160a01b031614610614576040516364283d7b60e01b81526001600160a01b03808616600483015260248201849052821660448201526064016105b0565b50505050565b61063583838360405180602001604052806000815250610d72565b505050565b6106426112dd565b6008546040516370a0823160e01b815230600482015282916001600160a01b0316906370a0823190602401602060405180830381865afa15801561068a573d6000803e3d6000fd5b505050506040513d601f19601f820116820180604052508101906106ae9190612527565b10156106f85760405162461bcd60e51b815260206004820152601960248201527826b2b1b42832ba1d3737ba1032b737bab3b4103c2a37b5b2b760391b60448201526064016105b0565b60085460405163a9059cbb60e01b8152336004820152602481018390526001600160a01b039091169063a9059cbb906044016020604051808303816000875af1158015610749573d6000803e3d6000fd5b505050506040513d601f19601f820116820180604052508101906105869190612540565b8685146107b45760405162461bcd60e51b81526020600482015260156024820152744d6563685065743a6c656e677468206e6f7420657160581b60448201526064016105b0565b8481146107fb5760405162461bcd60e51b81526020600482015260156024820152744d6563685065743a6c656e677468206e6f7420657160581b60448201526064016105b0565b600181101561084c5760405162461bcd60e51b815260206004820152601860248201527f4d6563685065743a757269732073686f756c64203e3d2031000000000000000060448201526064016105b0565b8660005b61085b600183612573565b81101561098357600b60405180608001604052808c8c8581811061088157610881612586565b9050602002013581526020018a8a8581811061089f5761089f612586565b9050602002013581526020018888858181106108bd576108bd612586565b9050602002013581526020018686858181106108db576108db612586565b90506020028101906108ed919061259c565b8080601f01602080910402602001604051908101604052809392919081815260200183838082843760009201829052509390945250508354600181810186559482526020918290208451600490920201908155908301519381019390935550604081015160028301556060810151909190600382019061096d9082612631565b505050808061097b906126f1565b915050610850565b50600b60405180608001604052808b8b6001866109a09190612573565b8181106109af576109af612586565b90506020020135815260200189896002866109ca9190612573565b8181106109d9576109d9612586565b90506020020135815260200187876001866109f49190612573565b818110610a0357610a03612586565b9050602002013581526020018585600186610a1e9190612573565b818110610a2d57610a2d612586565b9050602002810190610a3f919061259c565b8080601f016020809104026020016040519081016040528093929190818152602001838380828437600092018290525093909452505083546001818101865594825260209182902084516004909202019081559083015193810193909355506040810151600283015560608101519091906003820190610abf9082612631565b50506040518291507f24cca90911613ac7a0abc282be872a604d5c127eb0c6e5a97b056f971597f8c790600090a2505050505050505050565b60006104ba8261119e565b610b0b6112dd565b6040518060a00160405280600081526020016000815260200160008152602001600b600081548110610b3f57610b3f612586565b90600052602060002090600402016003018054610b5b906124ed565b80601f0160208091040260200160405190810160405280929190818152602001828054610b87906124ed565b8015610bd45780601f10610ba957610100808354040283529160200191610bd4565b820191906000526020600020905b815481529060010190602001808311610bb757829003601f168201915b5050509183525050600060209182018190526001600160a01b0384168152600d82526040808220548252600a83529081902083518155918301516001830155820151600282015560608201516003820190610c2f9082612631565b50608082015160048201805460ff19166001836002811115610c5357610c5361270a565b021790555050506001600160a01b03166000908152600d6020526040812055565b60006001600160a01b038216610ca0576040516322718ad960e21b8152600060048201526024016105b0565b506001600160a01b031660009081526003602052604090205490565b610cc46112dd565b610cce600061130a565b565b336000908152600d60205260409020546001811015610d015760405162461bcd60e51b81526004016105b090612720565b6000818152600a602052604081206002018054849290610d2290849061274a565b9091555050604051829042907fff31530cada36dc84e415b1545f7c017655c6827974a702de01668da2bdecce890600090a35050565b6060600180546104cf906124ed565b61058633838361135c565b610d7d84848461058a565b610614848484846113fb565b60606001821015610dac5760405162461bcd60e51b81526004016105b090612720565b6104ba82611524565b336000908152600d60209081526040808320548352600e9091529020541580610dfa5750336000908152600d60209081526040808320548352600e9091529020544210155b610e465760405162461bcd60e51b815260206004820152601960248201527f4d6563685065743a6c657373207468616e206f6e65206461790000000000000060448201526064016105b0565b600954610e5590610e1061275d565b610e5f904261274a565b336000908152600d60209081526040808320548352600e909152902055610e858161168c565b50565b6008546040516370a0823160e01b815233600482015283916001600160a01b0316906370a0823190602401602060405180830381865afa158015610ed0573d6000803e3d6000fd5b505050506040513d601f19601f82011682018060405250810190610ef49190612527565b1015610f3e5760405162461bcd60e51b815260206004820152601960248201527826b2b1b42832ba1d3737ba1032b737bab3b4103c2a37b5b2b760391b60448201526064016105b0565b6008546040516323b872dd60e01b8152336004820152306024820152604481018490526001600160a01b03909116906323b872dd906064016020604051808303816000875af1158015610f95573d6000803e3d6000fd5b505050506040513d601f19601f82011682018060405250810190610fb99190612540565b506105868161168c565b336000908152600d6020526040902054156110205760405162461bcd60e51b815260206004820152601760248201527f4d6563685065743a616c726561647920636c61696d656400000000000000000060448201526064016105b0565b610e85338261173e565b6001600160a01b03918216600090815260056020908152604080832093909416825291909152205460ff1690565b6110606112dd565b6008546040516370a0823160e01b81523060048201526000916001600160a01b0316906370a0823190602401602060405180830381865afa1580156110a9573d6000803e3d6000fd5b505050506040513d601f19601f820116820180604052508101906110cd9190612527565b9050600081116106f85760405162461bcd60e51b815260206004820152601160248201527026b2b1b42832ba1d3737903c2a37b5b2b760791b60448201526064016105b0565b61111b6112dd565b6001600160a01b03811661114557604051631e4fbdf760e01b8152600060048201526024016105b0565b610e858161130a565b60006001600160e01b031982166380ac58cd60e01b148061117f57506001600160e01b03198216635b5e139f60e01b145b806104ba57506301ffc9a760e01b6001600160e01b03198316146104ba565b6000818152600260205260408120546001600160a01b0316806104ba57604051637e27328960e01b8152600481018490526024016105b0565b6106358383836001611987565b6000828152600260205260408120546001600160a01b039081169083161561121157611211818486611a8d565b6001600160a01b0381161561124f5761122e600085600080611987565b6001600160a01b038116600090815260036020526040902080546000190190555b6001600160a01b0385161561127e576001600160a01b0385166000908152600360205260409020805460010190555b60008481526002602052604080822080546001600160a01b0319166001600160a01b0389811691821790925591518793918516917fddf252ad1be2c89b69c2b068fc378daa952ba7f163c4a11628f55a4df523b3ef91a4949350505050565b6007546001600160a01b03163314610cce5760405163118cdaa760e01b81523360048201526024016105b0565b600780546001600160a01b038381166001600160a01b0319831681179093556040519116919082907f8be0079c531659141344cd1fd0a4f28419497f9722a3daafe3b4186f6b6457e090600090a35050565b6001600160a01b03821661138e57604051630b61174360e31b81526001600160a01b03831660048201526024016105b0565b6001600160a01b03838116600081815260056020908152604080832094871680845294825291829020805460ff191686151590811790915591519182527f17307eab39ab6107e8899845ad3d59bd9653f200f220920489ca2b5937696c31910160405180910390a3505050565b6001600160a01b0383163b1561061457604051630a85bd0160e11b81526001600160a01b0384169063150b7a029061143d903390889087908790600401612774565b6020604051808303816000875af1925050508015611478575060408051601f3d908101601f19168201909252611475918101906127b1565b60015b6114e1573d8080156114a6576040519150601f19603f3d011682016040523d82523d6000602084013e6114ab565b606091505b5080516000036114d957604051633250574960e11b81526001600160a01b03851660048201526024016105b0565b805181602001fd5b6001600160e01b03198116630a85bd0160e11b1461151d57604051633250574960e11b81526001600160a01b03851660048201526024016105b0565b5050505050565b60606000600a60008481526020019081526020016000206040518060a0016040529081600082015481526020016001820154815260200160028201548152602001600382018054611574906124ed565b80601f01602080910402602001604051908101604052809291908181526020018280546115a0906124ed565b80156115ed5780601f106115c2576101008083540402835291602001916115ed565b820191906000526020600020905b8154815290600101906020018083116115d057829003601f168201915b5050509183525050600482015460209091019060ff1660028111156116145761161461270a565b60028111156116255761162561270a565b9052506060810151608082015191925090600090600281111561164a5761164a61270a565b90508161165682611af1565b845161166190611af1565b604051602001611673939291906127ce565b6040516020818303038152906040529350505050919050565b336000908152600d602052604090205460018110156116bd5760405162461bcd60e51b81526004016105b090612720565b6000818152600a6020526040812060010180548492906116de90849061274a565b9091555050604051829042907f74ba249ddff02a03d9b9d32e32e8f0a337456da2a3279406c53b6c5d1444e97990600090a36000818152600a602052604090206001015461172c9082611b84565b6105868161173983611524565b611eb9565b61174a82600f54611f09565b611803600f54600b60008154811061176457611764612586565b90600052602060002090600402016003018054611780906124ed565b80601f01602080910402602001604051908101604052809291908181526020018280546117ac906124ed565b80156117f95780601f106117ce576101008083540402835291602001916117f9565b820191906000526020600020905b8154815290600101906020018083116117dc57829003601f168201915b5050505050611eb9565b6040518060a00160405280600081526020016000815260200160008152602001600b60008154811061183757611837612586565b90600052602060002090600402016003018054611853906124ed565b80601f016020809104026020016040519081016040528092919081815260200182805461187f906124ed565b80156118cc5780601f106118a1576101008083540402835291602001916118cc565b820191906000526020600020905b8154815290600101906020018083116118af57829003601f168201915b505050505081526020018260028111156118e8576118e861270a565b9052600f546000908152600a602090815260409182902083518155908301516001820155908201516002820155606082015160038201906119299082612631565b50608082015160048201805460ff1916600183600281111561194d5761194d61270a565b021790555050600f80546001600160a01b0385166000908152600d6020526040812082905590925061197e836126f1565b91905055505050565b808061199b57506001600160a01b03821615155b15611a5d5760006119ab8461119e565b90506001600160a01b038316158015906119d75750826001600160a01b0316816001600160a01b031614155b80156119ea57506119e8818461102a565b155b15611a135760405163a9fbf51f60e01b81526001600160a01b03841660048201526024016105b0565b8115611a5b5783856001600160a01b0316826001600160a01b03167f8c5be1e5ebec7d5bd14f71427d1e84f3dd0314c0f7b2291e5b200ac8c7c3b92560405160405180910390a45b505b5050600090815260046020526040902080546001600160a01b0319166001600160a01b0392909216919091179055565b611a98838383611f23565b610635576001600160a01b038316611ac657604051637e27328960e01b8152600481018290526024016105b0565b60405163177e802f60e01b81526001600160a01b0383166004820152602481018290526044016105b0565b60606000611afe83611f89565b600101905060008167ffffffffffffffff811115611b1e57611b1e612385565b6040519080825280601f01601f191660200182016040528015611b48576020820181803683370190505b5090508181016020015b600019016f181899199a1a9b1b9c1cb0b131b232b360811b600a86061a8153600a8504945084611b5257509392505050565b600b54600003611bd65760405162461bcd60e51b815260206004820152601960248201527f4d6563685065743a206d617070696e6720697320656d7074790000000000000060448201526064016105b0565b6000828152600c602052604090206003018054611bf2906124ed565b159050611c5f576000828152600c602090815260408083206002810154858552600a9093529220908155600390810191611c2d91018261283f565b50604051829082907f8393903d33d9e9d8a753c3caa3ad93c65c8fabcef79e15a6f3bb7b3d7a6e9ca690600090a35050565b600b546000908190611c7390600290612573565b90505b808211611d855760006002611c8b8484612573565b611c959190612912565b611c9f908461274a565b905084600b8281548110611cb557611cb5612586565b90600052602060002090600402016000015411611cde57611cd781600161274a565b9250611d7f565b84600b8281548110611cf257611cf2612586565b9060005260206000209060040201600101541115611d1c57611d15600182612573565b9150611d7f565b84600b8281548110611d3057611d30612586565b90600052602060002090600402016001015411158015611d735750600b8181548110611d5e57611d5e612586565b90600052602060002090600402016000015485105b15611d7f579150611d85565b50611c76565b600b8281548110611d9857611d98612586565b60009182526020808320868452600a9091526040909220600390810192611dc49260040201018261283f565b50600b8281548110611dd857611dd8612586565b6000918252602080832060026004909302019190910154858352600a909152604090912055600b805483908110611e1157611e11612586565b600091825260208083206002600490930201820154878452600c90915260409092200155600b805483908110611e4957611e49612586565b60009182526020808320878452600c9091526040909220600390810192611e759260040201018261283f565b506000848152600c6020526040808220600201549051909185917ff24d78a4dff5b3f6e0939d0759dcbd9070ab52762dcf4bc5e0d5f9f2a3760c669190a350505050565b6000828152600660205260409020611ed18282612631565b506040518281527ff8e1a15aba9398e019f0b49df1a4fde98ee17ae345cb5f6b5e2c27f5033e8ce79060200160405180910390a15050565b610586828260405180602001604052806000815250612061565b60006001600160a01b03831615801590611f815750826001600160a01b0316846001600160a01b03161480611f5d5750611f5d848461102a565b80611f8157506000828152600460205260409020546001600160a01b038481169116145b949350505050565b60008072184f03e93ff9f4daa797ed6e38ed64bf6a1f0160401b8310611fc85772184f03e93ff9f4daa797ed6e38ed64bf6a1f0160401b830492506040015b6d04ee2d6d415b85acef81000000008310611ff4576d04ee2d6d415b85acef8100000000830492506020015b662386f26fc10000831061201257662386f26fc10000830492506010015b6305f5e100831061202a576305f5e100830492506008015b612710831061203e57612710830492506004015b60648310612050576064830492506002015b600a83106104ba5760010192915050565b61206b8383612078565b61063560008484846113fb565b6001600160a01b0382166120a257604051633250574960e11b8152600060048201526024016105b0565b60006120b0838360006111e4565b90506001600160a01b03811615610635576040516339e3563760e11b8152600060048201526024016105b0565b6001600160e01b031981168114610e8557600080fd5b60006020828403121561210557600080fd5b8135612110816120dd565b9392505050565b60005b8381101561213257818101518382015260200161211a565b50506000910152565b60008151808452612153816020860160208601612117565b601f01601f19169290920160200192915050565b602081526000612110602083018461213b565b60006020828403121561218c57600080fd5b5035919050565b80356001600160a01b03811681146121aa57600080fd5b919050565b600080604083850312156121c257600080fd5b6121cb83612193565b946020939093013593505050565b6000806000606084860312156121ee57600080fd5b6121f784612193565b925061220560208501612193565b9150604084013590509250925092565b60008083601f84011261222757600080fd5b50813567ffffffffffffffff81111561223f57600080fd5b6020830191508360208260051b850101111561225a57600080fd5b9250929050565b6000806000806000806000806080898b03121561227d57600080fd5b883567ffffffffffffffff8082111561229557600080fd5b6122a18c838d01612215565b909a50985060208b01359150808211156122ba57600080fd5b6122c68c838d01612215565b909850965060408b01359150808211156122df57600080fd5b6122eb8c838d01612215565b909650945060608b013591508082111561230457600080fd5b506123118b828c01612215565b999c989b5096995094979396929594505050565b60006020828403121561233757600080fd5b61211082612193565b8015158114610e8557600080fd5b6000806040838503121561236157600080fd5b61236a83612193565b9150602083013561237a81612340565b809150509250929050565b634e487b7160e01b600052604160045260246000fd5b600080600080608085870312156123b157600080fd5b6123ba85612193565b93506123c860208601612193565b925060408501359150606085013567ffffffffffffffff808211156123ec57600080fd5b818701915087601f83011261240057600080fd5b81358181111561241257612412612385565b604051601f8201601f19908116603f0116810190838211818310171561243a5761243a612385565b816040528281528a602084870101111561245357600080fd5b82602086016020830137600060208483010152809550505050505092959194509250565b6000806040838503121561248a57600080fd5b50508035926020909101359150565b6000602082840312156124ab57600080fd5b81356003811061211057600080fd5b600080604083850312156124cd57600080fd5b6124d683612193565b91506124e460208401612193565b90509250929050565b600181811c9082168061250157607f821691505b60208210810361252157634e487b7160e01b600052602260045260246000fd5b50919050565b60006020828403121561253957600080fd5b5051919050565b60006020828403121561255257600080fd5b815161211081612340565b634e487b7160e01b600052601160045260246000fd5b818103818111156104ba576104ba61255d565b634e487b7160e01b600052603260045260246000fd5b6000808335601e198436030181126125b357600080fd5b83018035915067ffffffffffffffff8211156125ce57600080fd5b60200191503681900382131561225a57600080fd5b601f82111561063557600081815260208120601f850160051c8101602086101561260a5750805b601f850160051c820191505b8181101561262957828155600101612616565b505050505050565b815167ffffffffffffffff81111561264b5761264b612385565b61265f8161265984546124ed565b846125e3565b602080601f831160018114612694576000841561267c5750858301515b600019600386901b1c1916600185901b178555612629565b600085815260208120601f198616915b828110156126c3578886015182559484019460019091019084016126a4565b50858210156126e15787850151600019600388901b60f8161c191681555b5050505050600190811b01905550565b6000600182016127035761270361255d565b5060010190565b634e487b7160e01b600052602160045260246000fd5b60208082526010908201526f135958da14195d0e9b9bdd081b5a5b9d60821b604082015260600190565b808201808211156104ba576104ba61255d565b80820281158282048414176104ba576104ba61255d565b6001600160a01b03858116825284166020820152604081018390526080606082018190526000906127a79083018461213b565b9695505050505050565b6000602082840312156127c357600080fd5b8151612110816120dd565b600084516127e0818460208901612117565b602f60f81b90830190815284516127fe816001840160208901612117565b605f60f81b600192909101918201528351612820816002840160208801612117565b64173539b7b760d91b6002929091019182015260070195945050505050565b81810361284a575050565b61285482546124ed565b67ffffffffffffffff81111561286c5761286c612385565b61287a8161265984546124ed565b6000601f8211600181146128ae57600083156128965750848201545b600019600385901b1c1916600184901b17845561151d565b600085815260209020601f19841690600086815260209020845b838110156128e857828601548255600195860195909101906020016128c8565b50858310156126e15793015460001960f8600387901b161c19169092555050600190811b01905550565b60008261292f57634e487b7160e01b600052601260045260246000fd5b50049056fea2646970667358221220f44c4969ec7ae7295bd07779430a7948857a5e706857ff9daf8a52c37168110464736f6c63430008140033",
  "linkReferences": {},
  "deployedLinkReferences": {}
}