{
  "_format": "hh-sol-artifact-1",
  "contractName": "MechPet",
  "sourceName": "contracts/token/MechPet.sol",
  "abi": [
    {
      "inputs": [
        {
          "internalType": "address",
          "name": "xTokenAddress",
          "type": "address"
        }
      ],
      "stateMutability": "nonpayable",
      "type": "constructor"
    },
    {
      "inputs": [
        {
          "internalType": "address",
          "name": "sender",
          "type": "address"
        },
        {
          "internalType": "uint256",
          "name": "tokenId",
          "type": "uint256"
        },
        {
          "internalType": "address",
          "name": "owner",
          "type": "address"
        }
      ],
      "name": "ERC721IncorrectOwner",
      "type": "error"
    },
    {
      "inputs": [
        {
          "internalType": "address",
          "name": "operator",
          "type": "address"
        },
        {
          "internalType": "uint256",
          "name": "tokenId",
          "type": "uint256"
        }
      ],
      "name": "ERC721InsufficientApproval",
      "type": "error"
    },
    {
      "inputs": [
        {
          "internalType": "address",
          "name": "approver",
          "type": "address"
        }
      ],
      "name": "ERC721InvalidApprover",
      "type": "error"
    },
    {
      "inputs": [
        {
          "internalType": "address",
          "name": "operator",
          "type": "address"
        }
      ],
      "name": "ERC721InvalidOperator",
      "type": "error"
    },
    {
      "inputs": [
        {
          "internalType": "address",
          "name": "owner",
          "type": "address"
        }
      ],
      "name": "ERC721InvalidOwner",
      "type": "error"
    },
    {
      "inputs": [
        {
          "internalType": "address",
          "name": "receiver",
          "type": "address"
        }
      ],
      "name": "ERC721InvalidReceiver",
      "type": "error"
    },
    {
      "inputs": [
        {
          "internalType": "address",
          "name": "sender",
          "type": "address"
        }
      ],
      "name": "ERC721InvalidSender",
      "type": "error"
    },
    {
      "inputs": [
        {
          "internalType": "uint256",
          "name": "tokenId",
          "type": "uint256"
        }
      ],
      "name": "ERC721NonexistentToken",
      "type": "error"
    },
    {
      "inputs": [
        {
          "internalType": "address",
          "name": "owner",
          "type": "address"
        }
      ],
      "name": "OwnableInvalidOwner",
      "type": "error"
    },
    {
      "inputs": [
        {
          "internalType": "address",
          "name": "account",
          "type": "address"
        }
      ],
      "name": "OwnableUnauthorizedAccount",
      "type": "error"
    },
    {
      "anonymous": false,
      "inputs": [
        {
          "indexed": true,
          "internalType": "address",
          "name": "owner",
          "type": "address"
        },
        {
          "indexed": true,
          "internalType": "address",
          "name": "approved",
          "type": "address"
        },
        {
          "indexed": true,
          "internalType": "uint256",
          "name": "tokenId",
          "type": "uint256"
        }
      ],
      "name": "Approval",
      "type": "event"
    },
    {
      "anonymous": false,
      "inputs": [
        {
          "indexed": true,
          "internalType": "address",
          "name": "owner",
          "type": "address"
        },
        {
          "indexed": true,
          "internalType": "address",
          "name": "operator",
          "type": "address"
        },
        {
          "indexed": false,
          "internalType": "bool",
          "name": "approved",
          "type": "bool"
        }
      ],
      "name": "ApprovalForAll",
      "type": "event"
    },
    {
      "anonymous": false,
      "inputs": [
        {
          "indexed": false,
          "internalType": "uint256",
          "name": "_fromTokenId",
          "type": "uint256"
        },
        {
          "indexed": false,
          "internalType": "uint256",
          "name": "_toTokenId",
          "type": "uint256"
        }
      ],
      "name": "BatchMetadataUpdate",
      "type": "event"
    },
    {
      "anonymous": false,
      "inputs": [
        {
          "indexed": true,
          "internalType": "uint256",
          "name": "tokenId",
          "type": "uint256"
        },
        {
          "indexed": true,
          "internalType": "uint256",
          "name": "exp",
          "type": "uint256"
        }
      ],
      "name": "EntryCacheHit",
      "type": "event"
    },
    {
      "anonymous": false,
      "inputs": [
        {
          "indexed": true,
          "internalType": "uint256",
          "name": "timestamp",
          "type": "uint256"
        },
        {
          "indexed": true,
          "internalType": "uint256",
          "name": "amount",
          "type": "uint256"
        }
      ],
      "name": "FeedPet",
      "type": "event"
    },
    {
      "anonymous": false,
      "inputs": [
        {
          "indexed": true,
          "internalType": "uint256",
          "name": "timestamp",
          "type": "uint256"
        },
        {
          "indexed": true,
          "internalType": "uint256",
          "name": "amount",
          "type": "uint256"
        }
      ],
      "name": "GrowPet",
      "type": "event"
    },
    {
      "anonymous": false,
      "inputs": [
        {
          "indexed": false,
          "internalType": "uint256",
          "name": "_tokenId",
          "type": "uint256"
        }
      ],
      "name": "MetadataUpdate",
      "type": "event"
    },
    {
      "anonymous": false,
      "inputs": [
        {
          "indexed": true,
          "internalType": "address",
          "name": "previousOwner",
          "type": "address"
        },
        {
          "indexed": true,
          "internalType": "address",
          "name": "newOwner",
          "type": "address"
        }
      ],
      "name": "OwnershipTransferred",
      "type": "event"
    },
    {
      "anonymous": false,
      "inputs": [
        {
          "indexed": true,
          "internalType": "uint256",
          "name": "len",
          "type": "uint256"
        }
      ],
      "name": "ReadPetMapping",
      "type": "event"
    },
    {
      "anonymous": false,
      "inputs": [
        {
          "indexed": true,
          "internalType": "uint256",
          "name": "tokenId",
          "type": "uint256"
        },
        {
          "indexed": true,
          "internalType": "uint256",
          "name": "lv",
          "type": "uint256"
        }
      ],
      "name": "SearchPetEntry",
      "type": "event"
    },
    {
      "anonymous": false,
      "inputs": [
        {
          "indexed": true,
          "internalType": "address",
          "name": "from",
          "type": "address"
        },
        {
          "indexed": true,
          "internalType": "address",
          "name": "to",
          "type": "address"
        },
        {
          "indexed": true,
          "internalType": "uint256",
          "name": "tokenId",
          "type": "uint256"
        }
      ],
      "name": "Transfer",
      "type": "event"
    },
    {
      "inputs": [],
      "name": "NAME",
      "outputs": [
        {
          "internalType": "string",
          "name": "",
          "type": "string"
        }
      ],
      "stateMutability": "view",
      "type": "function"
    },
    {
      "inputs": [
        {
          "internalType": "address",
          "name": "to",
          "type": "address"
        },
        {
          "internalType": "uint256",
          "name": "tokenId",
          "type": "uint256"
        }
      ],
      "name": "approve",
      "outputs": [],
      "stateMutability": "nonpayable",
      "type": "function"
    },
    {
      "inputs": [
        {
          "internalType": "address",
          "name": "owner",
          "type": "address"
        }
      ],
      "name": "balanceOf",
      "outputs": [
        {
          "internalType": "uint256",
          "name": "",
          "type": "uint256"
        }
      ],
      "stateMutability": "view",
      "type": "function"
    },
    {
      "inputs": [],
      "name": "claimFreePet",
      "outputs": [],
      "stateMutability": "nonpayable",
      "type": "function"
    },
    {
      "inputs": [
        {
          "internalType": "uint256",
          "name": "amount",
          "type": "uint256"
        },
        {
          "internalType": "uint256",
          "name": "exp",
          "type": "uint256"
        }
      ],
      "name": "feedPetWithFood",
      "outputs": [],
      "stateMutability": "nonpayable",
      "type": "function"
    },
    {
      "inputs": [
        {
          "internalType": "uint256",
          "name": "amount",
          "type": "uint256"
        }
      ],
      "name": "feedPetWithX",
      "outputs": [],
      "stateMutability": "nonpayable",
      "type": "function"
    },
    {
      "inputs": [
        {
          "internalType": "uint256",
          "name": "tokenId",
          "type": "uint256"
        }
      ],
      "name": "getApproved",
      "outputs": [
        {
          "internalType": "address",
          "name": "",
          "type": "address"
        }
      ],
      "stateMutability": "view",
      "type": "function"
    },
    {
      "inputs": [
        {
          "internalType": "uint256",
          "name": "tokenId",
          "type": "uint256"
        }
      ],
      "name": "getExp",
      "outputs": [
        {
          "internalType": "uint256",
          "name": "",
          "type": "uint256"
        }
      ],
      "stateMutability": "view",
      "type": "function"
    },
    {
      "inputs": [
        {
          "internalType": "uint256",
          "name": "tokenId",
          "type": "uint256"
        }
      ],
      "name": "getLv",
      "outputs": [
        {
          "internalType": "uint256",
          "name": "",
          "type": "uint256"
        }
      ],
      "stateMutability": "view",
      "type": "function"
    },
    {
      "inputs": [
        {
          "internalType": "address",
          "name": "owner",
          "type": "address"
        }
      ],
      "name": "getPetIdOf",
      "outputs": [
        {
          "internalType": "uint256",
          "name": "",
          "type": "uint256"
        }
      ],
      "stateMutability": "view",
      "type": "function"
    },
    {
      "inputs": [
        {
          "internalType": "uint256",
          "name": "tokenId",
          "type": "uint256"
        }
      ],
      "name": "getPoint",
      "outputs": [
        {
          "internalType": "uint256",
          "name": "",
          "type": "uint256"
        }
      ],
      "stateMutability": "view",
      "type": "function"
    },
    {
      "inputs": [
        {
          "internalType": "uint256",
          "name": "amount",
          "type": "uint256"
        }
      ],
      "name": "growPet",
      "outputs": [],
      "stateMutability": "nonpayable",
      "type": "function"
    },
    {
      "inputs": [
        {
          "internalType": "address",
          "name": "owner",
          "type": "address"
        },
        {
          "internalType": "address",
          "name": "operator",
          "type": "address"
        }
      ],
      "name": "isApprovedForAll",
      "outputs": [
        {
          "internalType": "bool",
          "name": "",
          "type": "bool"
        }
      ],
      "stateMutability": "view",
      "type": "function"
    },
    {
      "inputs": [],
      "name": "name",
      "outputs": [
        {
          "internalType": "string",
          "name": "",
          "type": "string"
        }
      ],
      "stateMutability": "view",
      "type": "function"
    },
    {
      "inputs": [],
      "name": "owner",
      "outputs": [
        {
          "internalType": "address",
          "name": "",
          "type": "address"
        }
      ],
      "stateMutability": "view",
      "type": "function"
    },
    {
      "inputs": [
        {
          "internalType": "uint256",
          "name": "tokenId",
          "type": "uint256"
        }
      ],
      "name": "ownerOf",
      "outputs": [
        {
          "internalType": "address",
          "name": "",
          "type": "address"
        }
      ],
      "stateMutability": "view",
      "type": "function"
    },
    {
      "inputs": [
        {
          "internalType": "uint256[]",
          "name": "ups",
          "type": "uint256[]"
        },
        {
          "internalType": "uint256[]",
          "name": "downs",
          "type": "uint256[]"
        },
        {
          "internalType": "uint256[]",
          "name": "lvs",
          "type": "uint256[]"
        },
        {
          "internalType": "string[]",
          "name": "uris",
          "type": "string[]"
        }
      ],
      "name": "readPetMapping",
      "outputs": [],
      "stateMutability": "nonpayable",
      "type": "function"
    },
    {
      "inputs": [],
      "name": "renounceOwnership",
      "outputs": [],
      "stateMutability": "nonpayable",
      "type": "function"
    },
    {
      "inputs": [
        {
          "internalType": "uint256",
          "name": "tokenId",
          "type": "uint256"
        }
      ],
      "name": "reset",
      "outputs": [],
      "stateMutability": "nonpayable",
      "type": "function"
    },
    {
      "inputs": [
        {
          "internalType": "address",
          "name": "from",
          "type": "address"
        },
        {
          "internalType": "address",
          "name": "to",
          "type": "address"
        },
        {
          "internalType": "uint256",
          "name": "tokenId",
          "type": "uint256"
        }
      ],
      "name": "safeTransferFrom",
      "outputs": [],
      "stateMutability": "nonpayable",
      "type": "function"
    },
    {
      "inputs": [
        {
          "internalType": "address",
          "name": "from",
          "type": "address"
        },
        {
          "internalType": "address",
          "name": "to",
          "type": "address"
        },
        {
          "internalType": "uint256",
          "name": "tokenId",
          "type": "uint256"
        },
        {
          "internalType": "bytes",
          "name": "data",
          "type": "bytes"
        }
      ],
      "name": "safeTransferFrom",
      "outputs": [],
      "stateMutability": "nonpayable",
      "type": "function"
    },
    {
      "inputs": [
        {
          "internalType": "address",
          "name": "operator",
          "type": "address"
        },
        {
          "internalType": "bool",
          "name": "approved",
          "type": "bool"
        }
      ],
      "name": "setApprovalForAll",
      "outputs": [],
      "stateMutability": "nonpayable",
      "type": "function"
    },
    {
      "inputs": [
        {
          "internalType": "bytes4",
          "name": "interfaceId",
          "type": "bytes4"
        }
      ],
      "name": "supportsInterface",
      "outputs": [
        {
          "internalType": "bool",
          "name": "",
          "type": "bool"
        }
      ],
      "stateMutability": "view",
      "type": "function"
    },
    {
      "inputs": [],
      "name": "symbol",
      "outputs": [
        {
          "internalType": "string",
          "name": "",
          "type": "string"
        }
      ],
      "stateMutability": "view",
      "type": "function"
    },
    {
      "inputs": [
        {
          "internalType": "uint256",
          "name": "tokenId",
          "type": "uint256"
        }
      ],
      "name": "tokenURI",
      "outputs": [
        {
          "internalType": "string",
          "name": "",
          "type": "string"
        }
      ],
      "stateMutability": "view",
      "type": "function"
    },
    {
      "inputs": [
        {
          "internalType": "address",
          "name": "from",
          "type": "address"
        },
        {
          "internalType": "address",
          "name": "to",
          "type": "address"
        },
        {
          "internalType": "uint256",
          "name": "tokenId",
          "type": "uint256"
        }
      ],
      "name": "transferFrom",
      "outputs": [],
      "stateMutability": "nonpayable",
      "type": "function"
    },
    {
      "inputs": [
        {
          "internalType": "address",
          "name": "newOwner",
          "type": "address"
        }
      ],
      "name": "transferOwnership",
      "outputs": [],
      "stateMutability": "nonpayable",
      "type": "function"
    },
    {
      "inputs": [],
      "name": "withdrawAllXToken",
      "outputs": [],
      "stateMutability": "nonpayable",
      "type": "function"
    },
    {
      "inputs": [
        {
          "internalType": "uint256",
          "name": "amount",
          "type": "uint256"
        }
      ],
      "name": "withdrawXToken",
      "outputs": [],
      "stateMutability": "nonpayable",
      "type": "function"
    },
    {
      "inputs": [],
      "name": "xToken",
      "outputs": [
        {
          "internalType": "contract IERC20",
          "name": "",
          "type": "address"
        }
      ],
      "stateMutability": "view",
      "type": "function"
    }
  ],
  "bytecode": "0x60806040526001600d553480156200001657600080fd5b506040516200281b3803806200281b83398101604081905262000039916200014f565b33604051806040016040528060098152602001681b595d18560814195d60ba1b815250604051806040016040528060048152602001631e14195d60e21b81525081600090816200008a919062000226565b50600162000099828262000226565b5050506001600160a01b038116620000cb57604051631e4fbdf760e01b81526000600482015260240160405180910390fd5b620000d681620000fd565b50600880546001600160a01b0319166001600160a01b0392909216919091179055620002f2565b600780546001600160a01b038381166001600160a01b0319831681179093556040519116919082907f8be0079c531659141344cd1fd0a4f28419497f9722a3daafe3b4186f6b6457e090600090a35050565b6000602082840312156200016257600080fd5b81516001600160a01b03811681146200017a57600080fd5b9392505050565b634e487b7160e01b600052604160045260246000fd5b600181811c90821680620001ac57607f821691505b602082108103620001cd57634e487b7160e01b600052602260045260246000fd5b50919050565b601f8211156200022157600081815260208120601f850160051c81016020861015620001fc5750805b601f850160051c820191505b818110156200021d5782815560010162000208565b5050505b505050565b81516001600160401b0381111562000242576200024262000181565b6200025a8162000253845462000197565b84620001d3565b602080601f831160018114620002925760008415620002795750858301515b600019600386901b1c1916600185901b1785556200021d565b600085815260208120601f198616915b82811015620002c357888601518255948401946001909101908401620002a2565b5085821015620002e25787850151600019600388901b60f8161c191681555b5050505050600190811b01905550565b61251980620003026000396000f3fe608060405234801561001057600080fd5b50600436106101da5760003560e01c8063715018a611610104578063b88d4fde116100a2578063e498922f11610071578063e498922f1461042c578063e985e9c51461044f578063ee93eef914610462578063f2fde38b1461046a57600080fd5b8063b88d4fde146103e0578063c87b56dd146103f3578063caf21cd914610406578063cfe152a51461041957600080fd5b8063947d55bf116100de578063947d55bf1461038f57806395d89b41146103a2578063a22cb465146103aa578063a3f4df7e146103bd57600080fd5b8063715018a614610353578063869f1c8e1461035b5780638da5cb5b1461037e57600080fd5b8063310bd74b1161017c578063626fa1071161014b578063626fa107146102f15780636352211e14610304578063694a7e451461031757806370a082311461034057600080fd5b8063310bd74b146102b057806339f62843146102c357806342842e0e146102cb5780635fdb1dd1146102de57600080fd5b8063088b699e116101b8578063088b699e14610247578063095ea7b31461025a57806323b872dd1461026f578063292bbdc41461028257600080fd5b806301ffc9a7146101df57806306fdde0314610207578063081812fc1461021c575b600080fd5b6101f26101ed366004611d6b565b61047d565b60405190151581526020015b60405180910390f35b61020f6104a8565b6040516101fe9190611dd5565b61022f61022a366004611de8565b61053a565b6040516001600160a01b0390911681526020016101fe565b60085461022f906001600160a01b031681565b61026d610268366004611e1d565b610563565b005b61026d61027d366004611e47565b610572565b6102a2610290366004611de8565b60009081526009602052604090205490565b6040519081526020016101fe565b61026d6102be366004611de8565b610602565b61026d6107d6565b61026d6102d9366004611e47565b61083e565b61026d6102ec366004611de8565b61085e565b61026d6102ff366004611ecf565b610991565b61022f610312366004611de8565b610d1c565b6102a2610325366004611f93565b6001600160a01b03166000908152600c602052604090205490565b6102a261034e366004611f93565b610d27565b61026d610d6f565b6102a2610369366004611de8565b60009081526009602052604090206002015490565b6007546001600160a01b031661022f565b61026d61039d366004611de8565b610d81565b61020f610e09565b61026d6103b8366004611fbc565b610e18565b61020f604051806040016040528060048152602001631e14195d60e21b81525081565b61026d6103ee366004612009565b610e23565b61020f610401366004611de8565b610e3a565b61026d610414366004611de8565b610efe565b61026d6104273660046120e5565b610f07565b6102a261043a366004611de8565b60009081526009602052604090206001015490565b6101f261045d366004612107565b611042565b61026d611070565b61026d610478366004611f93565b61112b565b60006001600160e01b03198216632483248360e11b14806104a257506104a282611166565b92915050565b6060600080546104b79061213a565b80601f01602080910402602001604051908101604052809291908181526020018280546104e39061213a565b80156105305780601f1061050557610100808354040283529160200191610530565b820191906000526020600020905b81548152906001019060200180831161051357829003601f168201915b5050505050905090565b6000610545826111b6565b506000828152600460205260409020546001600160a01b03166104a2565b61056e8282336111ef565b5050565b6001600160a01b0382166105a157604051633250574960e11b8152600060048201526024015b60405180910390fd5b60006105ae8383336111fc565b9050836001600160a01b0316816001600160a01b0316146105fc576040516364283d7b60e01b81526001600160a01b0380861660048301526024820184905282166044820152606401610598565b50505050565b61060a6112f5565b6040518060800160405280600081526020016000815260200160008152602001600a60008154811061063e5761063e612174565b9060005260206000209060040201600301805461065a9061213a565b80601f01602080910402602001604051908101604052809291908181526020018280546106869061213a565b80156106d35780601f106106a8576101008083540402835291602001916106d3565b820191906000526020600020905b8154815290600101906020018083116106b657829003601f168201915b505050919092525050600082815260096020908152604091829020835181559083015160018201559082015160028201556060820151600382019061071890826121d8565b509050506107d381600a60008154811061073457610734612174565b906000526020600020906004020160030180546107509061213a565b80601f016020809104026020016040519081016040528092919081815260200182805461077c9061213a565b80156107c95780601f1061079e576101008083540402835291602001916107c9565b820191906000526020600020905b8154815290600101906020018083116107ac57829003601f168201915b5050505050611322565b50565b336000908152600c6020526040902054156108335760405162461bcd60e51b815260206004820152601760248201527f4d6563685065743a616c726561647920636c61696d65640000000000000000006044820152606401610598565b61083c33611372565b565b61085983838360405180602001604052806000815250610e23565b505050565b6108666112f5565b6008546040516370a0823160e01b815230600482015282916001600160a01b0316906370a0823190602401602060405180830381865afa1580156108ae573d6000803e3d6000fd5b505050506040513d601f19601f820116820180604052508101906108d29190612298565b101561091c5760405162461bcd60e51b815260206004820152601960248201527826b2b1b42832ba1d3737ba1032b737bab3b4103c2a37b5b2b760391b6044820152606401610598565b60085460405163a9059cbb60e01b8152336004820152602481018390526001600160a01b039091169063a9059cbb906044016020604051808303816000875af115801561096d573d6000803e3d6000fd5b505050506040513d601f19601f8201168201806040525081019061056e91906122b1565b8685146109d85760405162461bcd60e51b81526020600482015260156024820152744d6563685065743a6c656e677468206e6f7420657160581b6044820152606401610598565b848114610a1f5760405162461bcd60e51b81526020600482015260156024820152744d6563685065743a6c656e677468206e6f7420657160581b6044820152606401610598565b6001811015610a705760405162461bcd60e51b815260206004820152601860248201527f4d6563685065743a757269732073686f756c64203e3d203100000000000000006044820152606401610598565b8660005b610a7f6001836122e4565b811015610ba757600a60405180608001604052808c8c85818110610aa557610aa5612174565b9050602002013581526020018a8a85818110610ac357610ac3612174565b905060200201358152602001888885818110610ae157610ae1612174565b905060200201358152602001868685818110610aff57610aff612174565b9050602002810190610b1191906122f7565b8080601f016020809104026020016040519081016040528093929190818152602001838380828437600092018290525093909452505083546001818101865594825260209182902084516004909202019081559083015193810193909355506040810151600283015560608101519091906003820190610b9190826121d8565b5050508080610b9f9061233e565b915050610a74565b50600a60405180608001604052808b8b600186610bc491906122e4565b818110610bd357610bd3612174565b9050602002013581526020018989600286610bee91906122e4565b818110610bfd57610bfd612174565b9050602002013581526020018787600186610c1891906122e4565b818110610c2757610c27612174565b9050602002013581526020018585600186610c4291906122e4565b818110610c5157610c51612174565b9050602002810190610c6391906122f7565b8080601f016020809104026020016040519081016040528093929190818152602001838380828437600092018290525093909452505083546001818101865594825260209182902084516004909202019081559083015193810193909355506040810151600283015560608101519091906003820190610ce390826121d8565b50506040518291507f24cca90911613ac7a0abc282be872a604d5c127eb0c6e5a97b056f971597f8c790600090a2505050505050505050565b60006104a2826111b6565b60006001600160a01b038216610d53576040516322718ad960e21b815260006004820152602401610598565b506001600160a01b031660009081526003602052604090205490565b610d776112f5565b61083c60006114de565b336000908152600c60205260409020546001811015610db25760405162461bcd60e51b815260040161059890612357565b60008181526009602052604081206002018054849290610dd3908490612381565b9091555050604051829042907fff31530cada36dc84e415b1545f7c017655c6827974a702de01668da2bdecce890600090a35050565b6060600180546104b79061213a565b61056e338383611530565b610e2e848484610572565b6105fc848484846115cf565b60606001821015610e5d5760405162461bcd60e51b815260040161059890612357565b60008281526009602052604090206003018054610e799061213a565b80601f0160208091040260200160405190810160405280929190818152602001828054610ea59061213a565b8015610ef25780601f10610ec757610100808354040283529160200191610ef2565b820191906000526020600020905b815481529060010190602001808311610ed557829003601f168201915b50505050509050919050565b6107d3816116f8565b6008546040516370a0823160e01b815233600482015283916001600160a01b0316906370a0823190602401602060405180830381865afa158015610f4f573d6000803e3d6000fd5b505050506040513d601f19601f82011682018060405250810190610f739190612298565b1015610fbd5760405162461bcd60e51b815260206004820152601960248201527826b2b1b42832ba1d3737ba1032b737bab3b4103c2a37b5b2b760391b6044820152606401610598565b6008546040516323b872dd60e01b8152336004820152306024820152604481018490526001600160a01b03909116906323b872dd906064016020604051808303816000875af1158015611014573d6000803e3d6000fd5b505050506040513d601f19601f8201168201806040525081019061103891906122b1565b5061056e816116f8565b6001600160a01b03918216600090815260056020908152604080832093909416825291909152205460ff1690565b6110786112f5565b6008546040516370a0823160e01b81523060048201526000916001600160a01b0316906370a0823190602401602060405180830381865afa1580156110c1573d6000803e3d6000fd5b505050506040513d601f19601f820116820180604052508101906110e59190612298565b90506000811161091c5760405162461bcd60e51b815260206004820152601160248201527026b2b1b42832ba1d3737903c2a37b5b2b760791b6044820152606401610598565b6111336112f5565b6001600160a01b03811661115d57604051631e4fbdf760e01b815260006004820152602401610598565b6107d3816114de565b60006001600160e01b031982166380ac58cd60e01b148061119757506001600160e01b03198216635b5e139f60e01b145b806104a257506301ffc9a760e01b6001600160e01b03198316146104a2565b6000818152600260205260408120546001600160a01b0316806104a257604051637e27328960e01b815260048101849052602401610598565b61085983838360016117ba565b6000828152600260205260408120546001600160a01b0390811690831615611229576112298184866118c0565b6001600160a01b03811615611267576112466000856000806117ba565b6001600160a01b038116600090815260036020526040902080546000190190555b6001600160a01b03851615611296576001600160a01b0385166000908152600360205260409020805460010190555b60008481526002602052604080822080546001600160a01b0319166001600160a01b0389811691821790925591518793918516917fddf252ad1be2c89b69c2b068fc378daa952ba7f163c4a11628f55a4df523b3ef91a4949350505050565b6007546001600160a01b0316331461083c5760405163118cdaa760e01b8152336004820152602401610598565b600082815260066020526040902061133a82826121d8565b506040518281527ff8e1a15aba9398e019f0b49df1a4fde98ee17ae345cb5f6b5e2c27f5033e8ce79060200160405180910390a15050565b61137e81600d54611924565b611398600d54600a60008154811061073457610734612174565b6040518060800160405280600081526020016000815260200160008152602001600a6000815481106113cc576113cc612174565b906000526020600020906004020160030180546113e89061213a565b80601f01602080910402602001604051908101604052809291908181526020018280546114149061213a565b80156114615780601f1061143657610100808354040283529160200191611461565b820191906000526020600020905b81548152906001019060200180831161144457829003601f168201915b505050919092525050600d5460009081526009602090815260409182902083518155908301516001820155908201516002820155606082015160038201906114a990826121d8565b5050600d80546001600160a01b0384166000908152600c602052604081208290559092506114d68361233e565b919050555050565b600780546001600160a01b038381166001600160a01b0319831681179093556040519116919082907f8be0079c531659141344cd1fd0a4f28419497f9722a3daafe3b4186f6b6457e090600090a35050565b6001600160a01b03821661156257604051630b61174360e31b81526001600160a01b0383166004820152602401610598565b6001600160a01b03838116600081815260056020908152604080832094871680845294825291829020805460ff191686151590811790915591519182527f17307eab39ab6107e8899845ad3d59bd9653f200f220920489ca2b5937696c31910160405180910390a3505050565b6001600160a01b0383163b156105fc57604051630a85bd0160e11b81526001600160a01b0384169063150b7a0290611611903390889087908790600401612394565b6020604051808303816000875af192505050801561164c575060408051601f3d908101601f19168201909252611649918101906123d1565b60015b6116b5573d80801561167a576040519150601f19603f3d011682016040523d82523d6000602084013e61167f565b606091505b5080516000036116ad57604051633250574960e11b81526001600160a01b0385166004820152602401610598565b805181602001fd5b6001600160e01b03198116630a85bd0160e11b146116f157604051633250574960e11b81526001600160a01b0385166004820152602401610598565b5050505050565b336000908152600c602052604090205460018110156117295760405162461bcd60e51b815260040161059890612357565b6000818152600960205260408120600101805484929061174a908490612381565b9091555050604051829042907f74ba249ddff02a03d9b9d32e32e8f0a337456da2a3279406c53b6c5d1444e97990600090a3600081815260096020526040902060010154611798908261193e565b6000818152600960205260409020600301805461056e9183916107509061213a565b80806117ce57506001600160a01b03821615155b156118905760006117de846111b6565b90506001600160a01b0383161580159061180a5750826001600160a01b0316816001600160a01b031614155b801561181d575061181b8184611042565b155b156118465760405163a9fbf51f60e01b81526001600160a01b0384166004820152602401610598565b811561188e5783856001600160a01b0316826001600160a01b03167f8c5be1e5ebec7d5bd14f71427d1e84f3dd0314c0f7b2291e5b200ac8c7c3b92560405160405180910390a45b505b5050600090815260046020526040902080546001600160a01b0319166001600160a01b0392909216919091179055565b6118cb838383611c73565b610859576001600160a01b0383166118f957604051637e27328960e01b815260048101829052602401610598565b60405163177e802f60e01b81526001600160a01b038316600482015260248101829052604401610598565b61056e828260405180602001604052806000815250611cd9565b600a546000036119905760405162461bcd60e51b815260206004820152601960248201527f4d6563685065743a206d617070696e6720697320656d707479000000000000006044820152606401610598565b6000828152600b6020526040902060030180546119ac9061213a565b159050611a19576000828152600b602090815260408083206002810154858552600990935292209081556003908101916119e79101826123ee565b50604051829082907f8393903d33d9e9d8a753c3caa3ad93c65c8fabcef79e15a6f3bb7b3d7a6e9ca690600090a35050565b600a546000908190611a2d906002906122e4565b90505b808211611b3f5760006002611a4584846122e4565b611a4f91906124c1565b611a599084612381565b905084600a8281548110611a6f57611a6f612174565b90600052602060002090600402016000015411611a9857611a91816001612381565b9250611b39565b84600a8281548110611aac57611aac612174565b9060005260206000209060040201600101541115611ad657611acf6001826122e4565b9150611b39565b84600a8281548110611aea57611aea612174565b90600052602060002090600402016001015411158015611b2d5750600a8181548110611b1857611b18612174565b90600052602060002090600402016000015485105b15611b39579150611b3f565b50611a30565b600a8281548110611b5257611b52612174565b6000918252602080832086845260099091526040909220600390810192611b7e926004020101826123ee565b50600a8281548110611b9257611b92612174565b60009182526020808320600260049093020191909101548583526009909152604090912055600a805483908110611bcb57611bcb612174565b600091825260208083206002600490930201820154878452600b90915260409092200155600a805483908110611c0357611c03612174565b60009182526020808320878452600b9091526040909220600390810192611c2f926004020101826123ee565b506000848152600b6020526040808220600201549051909185917ff24d78a4dff5b3f6e0939d0759dcbd9070ab52762dcf4bc5e0d5f9f2a3760c669190a350505050565b60006001600160a01b03831615801590611cd15750826001600160a01b0316846001600160a01b03161480611cad5750611cad8484611042565b80611cd157506000828152600460205260409020546001600160a01b038481169116145b949350505050565b611ce38383611cf0565b61085960008484846115cf565b6001600160a01b038216611d1a57604051633250574960e11b815260006004820152602401610598565b6000611d28838360006111fc565b90506001600160a01b03811615610859576040516339e3563760e11b815260006004820152602401610598565b6001600160e01b0319811681146107d357600080fd5b600060208284031215611d7d57600080fd5b8135611d8881611d55565b9392505050565b6000815180845260005b81811015611db557602081850181015186830182015201611d99565b506000602082860101526020601f19601f83011685010191505092915050565b602081526000611d886020830184611d8f565b600060208284031215611dfa57600080fd5b5035919050565b80356001600160a01b0381168114611e1857600080fd5b919050565b60008060408385031215611e3057600080fd5b611e3983611e01565b946020939093013593505050565b600080600060608486031215611e5c57600080fd5b611e6584611e01565b9250611e7360208501611e01565b9150604084013590509250925092565b60008083601f840112611e9557600080fd5b50813567ffffffffffffffff811115611ead57600080fd5b6020830191508360208260051b8501011115611ec857600080fd5b9250929050565b6000806000806000806000806080898b031215611eeb57600080fd5b883567ffffffffffffffff80821115611f0357600080fd5b611f0f8c838d01611e83565b909a50985060208b0135915080821115611f2857600080fd5b611f348c838d01611e83565b909850965060408b0135915080821115611f4d57600080fd5b611f598c838d01611e83565b909650945060608b0135915080821115611f7257600080fd5b50611f7f8b828c01611e83565b999c989b5096995094979396929594505050565b600060208284031215611fa557600080fd5b611d8882611e01565b80151581146107d357600080fd5b60008060408385031215611fcf57600080fd5b611fd883611e01565b91506020830135611fe881611fae565b809150509250929050565b634e487b7160e01b600052604160045260246000fd5b6000806000806080858703121561201f57600080fd5b61202885611e01565b935061203660208601611e01565b925060408501359150606085013567ffffffffffffffff8082111561205a57600080fd5b818701915087601f83011261206e57600080fd5b81358181111561208057612080611ff3565b604051601f8201601f19908116603f011681019083821181831017156120a8576120a8611ff3565b816040528281528a60208487010111156120c157600080fd5b82602086016020830137600060208483010152809550505050505092959194509250565b600080604083850312156120f857600080fd5b50508035926020909101359150565b6000806040838503121561211a57600080fd5b61212383611e01565b915061213160208401611e01565b90509250929050565b600181811c9082168061214e57607f821691505b60208210810361216e57634e487b7160e01b600052602260045260246000fd5b50919050565b634e487b7160e01b600052603260045260246000fd5b601f82111561085957600081815260208120601f850160051c810160208610156121b15750805b601f850160051c820191505b818110156121d0578281556001016121bd565b505050505050565b815167ffffffffffffffff8111156121f2576121f2611ff3565b61220681612200845461213a565b8461218a565b602080601f83116001811461223b57600084156122235750858301515b600019600386901b1c1916600185901b1785556121d0565b600085815260208120601f198616915b8281101561226a5788860151825594840194600190910190840161224b565b50858210156122885787850151600019600388901b60f8161c191681555b5050505050600190811b01905550565b6000602082840312156122aa57600080fd5b5051919050565b6000602082840312156122c357600080fd5b8151611d8881611fae565b634e487b7160e01b600052601160045260246000fd5b818103818111156104a2576104a26122ce565b6000808335601e1984360301811261230e57600080fd5b83018035915067ffffffffffffffff82111561232957600080fd5b602001915036819003821315611ec857600080fd5b600060018201612350576123506122ce565b5060010190565b60208082526010908201526f135958da14195d0e9b9bdd081b5a5b9d60821b604082015260600190565b808201808211156104a2576104a26122ce565b6001600160a01b03858116825284166020820152604081018390526080606082018190526000906123c790830184611d8f565b9695505050505050565b6000602082840312156123e357600080fd5b8151611d8881611d55565b8181036123f9575050565b612403825461213a565b67ffffffffffffffff81111561241b5761241b611ff3565b61242981612200845461213a565b6000601f82116001811461245d57600083156124455750848201545b600019600385901b1c1916600184901b1784556116f1565b600085815260209020601f19841690600086815260209020845b838110156124975782860154825560019586019590910190602001612477565b50858310156122885793015460001960f8600387901b161c19169092555050600190811b01905550565b6000826124de57634e487b7160e01b600052601260045260246000fd5b50049056fea26469706673582212202dcaaa96cd6f35cc180e3f2381ee9b084c7c0f3f76d888f38e11713b2ebe949a64736f6c63430008140033",
  "linkReferences": {},
  "deployedLinkReferences": {}
}